{
  "address": "0x99E634e057bfDf7E29A350D5cf20622f77D8cF5C",
  "abi": [
    {
      "anonymous": false,
      "inputs": [
        {
          "indexed": true,
          "internalType": "address",
          "name": "depositor",
          "type": "address"
        },
        {
          "indexed": true,
          "internalType": "address",
          "name": "contract_",
          "type": "address"
        },
        {
          "indexed": false,
          "internalType": "uint256",
          "name": "tokenId",
          "type": "uint256"
        }
      ],
      "name": "LentCanceled",
      "type": "event"
    },
    {
      "anonymous": false,
      "inputs": [
        {
          "indexed": true,
          "internalType": "address",
          "name": "previousOwner",
          "type": "address"
        },
        {
          "indexed": true,
          "internalType": "address",
          "name": "newOwner",
          "type": "address"
        }
      ],
      "name": "OwnershipTransferred",
      "type": "event"
    },
    {
      "anonymous": false,
      "inputs": [
        {
          "indexed": true,
          "internalType": "address",
          "name": "depositer",
          "type": "address"
        },
        {
          "indexed": true,
          "internalType": "address",
          "name": "contract_",
          "type": "address"
        },
        {
          "indexed": false,
          "internalType": "uint256",
          "name": "tokenId",
          "type": "uint256"
        },
        {
          "indexed": false,
          "internalType": "uint256",
          "name": "unitFee",
          "type": "uint256"
        }
      ],
      "name": "TokenLent",
      "type": "event"
    },
    {
      "anonymous": false,
      "inputs": [
        {
          "indexed": true,
          "internalType": "address",
          "name": "renter",
          "type": "address"
        },
        {
          "indexed": false,
          "internalType": "uint256",
          "name": "rentIdx",
          "type": "uint256"
        },
        {
          "indexed": true,
          "internalType": "address",
          "name": "contract_",
          "type": "address"
        },
        {
          "indexed": false,
          "internalType": "uint256",
          "name": "tokenId",
          "type": "uint256"
        }
      ],
      "name": "TokenRented",
      "type": "event"
    },
    {
      "inputs": [],
      "name": "adVault",
      "outputs": [
        {
          "internalType": "address",
          "name": "",
          "type": "address"
        }
      ],
      "stateMutability": "view",
      "type": "function"
    },
    {
      "inputs": [
        {
          "internalType": "address",
          "name": "payment",
          "type": "address"
        }
      ],
      "name": "addPayment",
      "outputs": [],
      "stateMutability": "nonpayable",
      "type": "function"
    },
    {
      "inputs": [
        {
          "internalType": "address",
          "name": "contract_",
          "type": "address"
        },
        {
          "internalType": "uint256",
          "name": "tokenId",
          "type": "uint256"
        }
      ],
      "name": "cancelLend",
      "outputs": [],
      "stateMutability": "nonpayable",
      "type": "function"
    },
    {
      "inputs": [],
      "name": "commission",
      "outputs": [
        {
          "internalType": "uint256",
          "name": "",
          "type": "uint256"
        }
      ],
      "stateMutability": "view",
      "type": "function"
    },
    {
      "inputs": [],
      "name": "createVault",
      "outputs": [],
      "stateMutability": "nonpayable",
      "type": "function"
    },
    {
      "inputs": [],
      "name": "feeBase",
      "outputs": [
        {
          "internalType": "uint256",
          "name": "",
          "type": "uint256"
        }
      ],
      "stateMutability": "view",
      "type": "function"
    },
    {
      "inputs": [
        {
          "internalType": "address",
          "name": "renter",
          "type": "address"
        },
        {
          "internalType": "address",
          "name": "contract_",
          "type": "address"
        }
      ],
      "name": "getAliveRentals",
      "outputs": [
        {
          "components": [
            {
              "internalType": "address",
              "name": "renter",
              "type": "address"
            },
            {
              "internalType": "address",
              "name": "contract_",
              "type": "address"
            },
            {
              "internalType": "uint256",
              "name": "tokenId",
              "type": "uint256"
            },
            {
              "internalType": "address",
              "name": "vault",
              "type": "address"
            },
            {
              "internalType": "uint256",
              "name": "endTime",
              "type": "uint256"
            }
          ],
          "internalType": "struct IRentFun.Rental[]",
          "name": "aliveRentals",
          "type": "tuple[]"
        }
      ],
      "stateMutability": "view",
      "type": "function"
    },
    {
      "inputs": [],
      "name": "getOwners",
      "outputs": [
        {
          "internalType": "address[]",
          "name": "",
          "type": "address[]"
        }
      ],
      "stateMutability": "view",
      "type": "function"
    },
    {
      "inputs": [],
      "name": "getPaymentContracts",
      "outputs": [
        {
          "internalType": "address[]",
          "name": "",
          "type": "address[]"
        }
      ],
      "stateMutability": "view",
      "type": "function"
    },
    {
      "inputs": [
        {
          "internalType": "address",
          "name": "contract_",
          "type": "address"
        },
        {
          "internalType": "uint256",
          "name": "tokenId",
          "type": "uint256"
        }
      ],
      "name": "getTokenHash",
      "outputs": [
        {
          "internalType": "bytes32",
          "name": "",
          "type": "bytes32"
        }
      ],
      "stateMutability": "pure",
      "type": "function"
    },
    {
      "inputs": [
        {
          "internalType": "address",
          "name": "adVault_",
          "type": "address"
        },
        {
          "internalType": "uint256",
          "name": "unitTime_",
          "type": "uint256"
        },
        {
          "internalType": "uint256",
          "name": "commission_",
          "type": "uint256"
        }
      ],
      "name": "initialize",
      "outputs": [],
      "stateMutability": "nonpayable",
      "type": "function"
    },
    {
      "inputs": [
        {
          "internalType": "address",
          "name": "contract_",
          "type": "address"
        },
        {
          "internalType": "uint256",
          "name": "tokenId",
          "type": "uint256"
        }
      ],
      "name": "isRented",
      "outputs": [
        {
          "internalType": "bool",
          "name": "",
          "type": "bool"
        }
      ],
      "stateMutability": "view",
      "type": "function"
    },
    {
      "inputs": [
        {
          "internalType": "address",
          "name": "contract_",
          "type": "address"
        },
        {
          "internalType": "uint256",
          "name": "tokenId",
          "type": "uint256"
        },
        {
          "internalType": "address",
          "name": "payment",
          "type": "address"
        },
        {
          "internalType": "uint256",
          "name": "unitFee",
          "type": "uint256"
        }
      ],
      "name": "lend",
      "outputs": [],
      "stateMutability": "nonpayable",
      "type": "function"
    },
    {
      "inputs": [],
      "name": "nextTokenIdx",
      "outputs": [
        {
          "internalType": "uint256",
          "name": "",
          "type": "uint256"
        }
      ],
      "stateMutability": "view",
      "type": "function"
    },
    {
      "inputs": [],
      "name": "owner",
      "outputs": [
        {
          "internalType": "address",
          "name": "",
          "type": "address"
        }
      ],
      "stateMutability": "view",
      "type": "function"
    },
    {
      "inputs": [
        {
          "internalType": "address",
          "name": "",
          "type": "address"
        }
      ],
      "name": "partners",
      "outputs": [
        {
          "internalType": "address",
          "name": "feeReceiver",
          "type": "address"
        },
        {
          "internalType": "uint256",
          "name": "commission",
          "type": "uint256"
        }
      ],
      "stateMutability": "view",
      "type": "function"
    },
    {
      "inputs": [
        {
          "internalType": "address",
          "name": "",
          "type": "address"
        }
      ],
      "name": "payments",
      "outputs": [
        {
          "internalType": "uint256",
          "name": "",
          "type": "uint256"
        }
      ],
      "stateMutability": "view",
      "type": "function"
    },
    {
      "inputs": [],
      "name": "renounceOwnership",
      "outputs": [],
      "stateMutability": "nonpayable",
      "type": "function"
    },
    {
      "inputs": [
        {
          "internalType": "address",
          "name": "contract_",
          "type": "address"
        },
        {
          "internalType": "uint256",
          "name": "tokenId",
          "type": "uint256"
        },
        {
          "internalType": "uint256",
          "name": "amount",
          "type": "uint256"
        }
      ],
      "name": "rent",
      "outputs": [],
      "stateMutability": "payable",
      "type": "function"
    },
    {
      "inputs": [
        {
          "internalType": "uint256",
          "name": "",
          "type": "uint256"
        }
      ],
      "name": "rentals",
      "outputs": [
        {
          "internalType": "address",
          "name": "renter",
          "type": "address"
        },
        {
          "internalType": "address",
          "name": "contract_",
          "type": "address"
        },
        {
          "internalType": "uint256",
          "name": "tokenId",
          "type": "uint256"
        },
        {
          "internalType": "address",
          "name": "vault",
          "type": "address"
        },
        {
          "internalType": "uint256",
          "name": "endTime",
          "type": "uint256"
        }
      ],
      "stateMutability": "view",
      "type": "function"
    },
    {
      "inputs": [
        {
          "internalType": "address",
          "name": "adVault_",
          "type": "address"
        }
      ],
      "name": "setAdVault",
      "outputs": [],
      "stateMutability": "nonpayable",
      "type": "function"
    },
    {
      "inputs": [
        {
          "internalType": "uint256",
          "name": "commission_",
          "type": "uint256"
        }
      ],
      "name": "setCommission",
      "outputs": [],
      "stateMutability": "nonpayable",
      "type": "function"
    },
    {
      "inputs": [
        {
          "internalType": "address",
          "name": "contract_",
          "type": "address"
        },
        {
          "internalType": "address",
          "name": "feeReceiver_",
          "type": "address"
        },
        {
          "internalType": "uint256",
          "name": "commission_",
          "type": "uint256"
        }
      ],
      "name": "setPartners",
      "outputs": [],
      "stateMutability": "nonpayable",
      "type": "function"
    },
    {
      "inputs": [
        {
          "internalType": "uint256",
          "name": "unitTime_",
          "type": "uint256"
        }
      ],
      "name": "setUnitTime",
      "outputs": [],
      "stateMutability": "nonpayable",
      "type": "function"
    },
    {
      "inputs": [
        {
          "internalType": "uint256",
          "name": "",
          "type": "uint256"
        }
      ],
      "name": "tokenDetails",
      "outputs": [
        {
          "internalType": "address",
          "name": "contract_",
          "type": "address"
        },
        {
          "internalType": "uint256",
          "name": "tokenId",
          "type": "uint256"
        },
        {
          "internalType": "address",
          "name": "depositor",
          "type": "address"
        },
        {
          "internalType": "address",
          "name": "vault",
          "type": "address"
        },
        {
          "internalType": "address",
          "name": "payment",
          "type": "address"
        },
        {
          "internalType": "uint256",
          "name": "unitFee",
          "type": "uint256"
        },
        {
          "internalType": "uint256",
          "name": "lastRentIdx",
          "type": "uint256"
        },
        {
          "internalType": "uint256",
          "name": "endTime",
          "type": "uint256"
        },
        {
          "internalType": "enum Enum.RentStatus",
          "name": "rentStatus",
          "type": "uint8"
        }
      ],
      "stateMutability": "view",
      "type": "function"
    },
    {
      "inputs": [
        {
          "internalType": "bytes32",
          "name": "",
          "type": "bytes32"
        }
      ],
      "name": "tokenIdxes",
      "outputs": [
        {
          "internalType": "uint256",
          "name": "",
          "type": "uint256"
        }
      ],
      "stateMutability": "view",
      "type": "function"
    },
    {
      "inputs": [],
      "name": "totalRentCount",
      "outputs": [
        {
          "internalType": "uint256",
          "name": "",
          "type": "uint256"
        }
      ],
      "stateMutability": "view",
      "type": "function"
    },
    {
      "inputs": [
        {
          "internalType": "address",
          "name": "newOwner",
          "type": "address"
        }
      ],
      "name": "transferOwnership",
      "outputs": [],
      "stateMutability": "nonpayable",
      "type": "function"
    },
    {
      "inputs": [],
      "name": "unitTime",
      "outputs": [
        {
          "internalType": "uint256",
          "name": "",
          "type": "uint256"
        }
      ],
      "stateMutability": "view",
      "type": "function"
    },
    {
      "inputs": [
        {
          "internalType": "address",
          "name": "",
          "type": "address"
        }
      ],
      "name": "vaults",
      "outputs": [
        {
          "internalType": "address",
          "name": "",
          "type": "address"
        }
      ],
      "stateMutability": "view",
      "type": "function"
    }
  ],
  "transactionHash": "0xb4fa418178d7601f99b2ea3cb1978014fa703587a313ac3be1857c62568708e3",
  "args": [],
  "numDeployments": 1,
  "solcInputHash": "c611e1e21f4163bde2480e2b0232f5f1",
  "bytecode": "0x60806040526001600d5560006010553480156200001b57600080fd5b506200003c620000306200004260201b60201c565b6200004a60201b60201c565b6200010e565b600033905090565b60008060009054906101000a900473ffffffffffffffffffffffffffffffffffffffff169050816000806101000a81548173ffffffffffffffffffffffffffffffffffffffff021916908373ffffffffffffffffffffffffffffffffffffffff1602179055508173ffffffffffffffffffffffffffffffffffffffff168173ffffffffffffffffffffffffffffffffffffffff167f8be0079c531659141344cd1fd0a4f28419497f9722a3daafe3b4186f6b6457e060405160405180910390a35050565b61526b806200011e6000396000f3fe608060405260043610620001fa5760003560e01c8063904f3a63116200010f578063b61096f411620000a3578063edf06f7b116200006d578063edf06f7b146200073c578063f2fde38b146200076a578063f7019fc51462000798578063fc314e3114620007c657620001fa565b8063b61096f41462000668578063d875cf961462000698578063e148919114620006c8578063e2982c2114620006f857620001fa565b8063a0e67e2b11620000e5578063a0e67e2b1462000568578063a622ee7c1462000598578063aa6ae6d014620005dc578063af94a1d1146200062057620001fa565b8063904f3a6314620004c357806395c3365214620004f357806395e911a8146200053857620001fa565b8063355e6b4311620001935780636c492321116200015d5780636c492321146200041b578063715018a6146200044b5780637a1ac61e14620004655780638da5cb5b146200049357620001fa565b8063355e6b43146200036f5780633e18375c146200039d5780634dc32a1814620003e15780635d12928b146200040157620001fa565b80632066ab4811620001d55780632066ab4814620002b5578063289799b714620002e35780632936d92214620003115780632b4af15b146200033f57620001fa565b8063094f743e14620001ff5780630a8bb57314620002435780631144a49d1462000287575b600080fd5b3480156200020c57600080fd5b506200022b60048036038101906200022591906200346a565b62000812565b6040516200023a919062003d79565b60405180910390f35b3480156200025057600080fd5b506200026f600480360381019062000269919062003599565b62000936565b6040516200027e919062004019565b60405180910390f35b3480156200029457600080fd5b50620002b36004803603810190620002ad919062003414565b6200094e565b005b348015620002c257600080fd5b50620002e16004803603810190620002db91906200337b565b62000a7a565b005b348015620002f057600080fd5b506200030f6004803603810190620003099190620035c5565b62000ac8565b005b3480156200031e57600080fd5b506200033d6004803603810190620003379190620034ab565b62000adc565b005b3480156200034c57600080fd5b506200035762001127565b60405162000366919062003d31565b60405180910390f35b3480156200037c57600080fd5b506200039b6004803603810190620003959190620035c5565b6200113a565b005b348015620003aa57600080fd5b50620003c96004803603810190620003c391906200346a565b62001196565b604051620003d8919062003d96565b60405180910390f35b620003ff6004803603810190620003f9919062003517565b620011cb565b005b3480156200040e57600080fd5b506200041962001dea565b005b3480156200042857600080fd5b506200043362001ec8565b60405162000442919062004019565b60405180910390f35b3480156200045857600080fd5b506200046362001ece565b005b3480156200047257600080fd5b506200049160048036038101906200048b919062003517565b62001ee6565b005b348015620004a057600080fd5b50620004ab62001fa4565b604051620004ba919062003bae565b60405180910390f35b348015620004d057600080fd5b50620004db62001fcd565b604051620004ea919062003bae565b60405180910390f35b3480156200050057600080fd5b506200051f60048036038101906200051991906200337b565b62001ff3565b6040516200052f92919062003c65565b60405180910390f35b3480156200054557600080fd5b506200055062002037565b6040516200055f919062004019565b60405180910390f35b3480156200057557600080fd5b50620005806200203d565b6040516200058f919062003d31565b60405180910390f35b348015620005a557600080fd5b50620005c46004803603810190620005be91906200337b565b62002050565b604051620005d3919062003bae565b60405180910390f35b348015620005e957600080fd5b50620006086004803603810190620006029190620033d3565b62002083565b60405162000617919062003d55565b60405180910390f35b3480156200062d57600080fd5b506200064c6004803603810190620006469190620035c5565b6200248e565b6040516200065f95949392919062003c08565b60405180910390f35b3480156200067557600080fd5b506200068062002524565b6040516200068f919062004019565b60405180910390f35b348015620006a557600080fd5b50620006b06200252a565b604051620006bf919062004019565b60405180910390f35b348015620006d557600080fd5b50620006e062002530565b604051620006ef919062004019565b60405180910390f35b3480156200070557600080fd5b506200072460048036038101906200071e91906200337b565b62002536565b60405162000733919062004019565b60405180910390f35b3480156200074957600080fd5b506200076860048036038101906200076291906200337b565b6200254e565b005b3480156200077757600080fd5b506200079660048036038101906200079091906200337b565b62002572565b005b348015620007a557600080fd5b50620007c46004803603810190620007be91906200346a565b620025fd565b005b348015620007d357600080fd5b50620007f26004803603810190620007ec9190620035c5565b6200287a565b604051620008099998979695949392919062003c92565b60405180910390f35b60008062000821848462001196565b90506000600f60008381526020019081526020016000205414156200084b57600091505062000930565b60038081111562000885577f4e487b7100000000000000000000000000000000000000000000000000000000600052602160045260246000fd5b600e6000600f600085815260200190815260200160002054815260200190815260200160002060080160009054906101000a900460ff166003811115620008f5577f4e487b7100000000000000000000000000000000000000000000000000000000600052602160045260246000fd5b1415806200092c575042600e6000600f60008581526020019081526020016000205481526020019081526020016000206007015410155b9150505b92915050565b600f6020528060005260406000206000915090505481565b6200095862002955565b612710811115620009a0576040517f08c379a0000000000000000000000000000000000000000000000000000000008152600401620009979062003f2b565b60405180910390fd5b60405180604001604052808373ffffffffffffffffffffffffffffffffffffffff16815260200182815250600c60008573ffffffffffffffffffffffffffffffffffffffff1673ffffffffffffffffffffffffffffffffffffffff16815260200190815260200160002060008201518160000160006101000a81548173ffffffffffffffffffffffffffffffffffffffff021916908373ffffffffffffffffffffffffffffffffffffffff1602179055506020820151816001015590505062000a7483600a620029da90919063ffffffff16565b50505050565b62000a8462002955565b80600360006101000a81548173ffffffffffffffffffffffffffffffffffffffff021916908373ffffffffffffffffffffffffffffffffffffffff16021790555050565b62000ad262002955565b8060018190555050565b62000af282600762002a0c90919063ffffffff16565b62000b34576040517f08c379a000000000000000000000000000000000000000000000000000000000815260040162000b2b9062003e81565b60405180910390fd5b600073ffffffffffffffffffffffffffffffffffffffff16600660003373ffffffffffffffffffffffffffffffffffffffff1673ffffffffffffffffffffffffffffffffffffffff16815260200190815260200160002060009054906101000a900473ffffffffffffffffffffffffffffffffffffffff1673ffffffffffffffffffffffffffffffffffffffff16141562000bd55762000bd43362002a3e565b5b6000600660003373ffffffffffffffffffffffffffffffffffffffff1673ffffffffffffffffffffffffffffffffffffffff16815260200190815260200160002060009054906101000a900473ffffffffffffffffffffffffffffffffffffffff1690508073ffffffffffffffffffffffffffffffffffffffff168573ffffffffffffffffffffffffffffffffffffffff16636352211e866040518263ffffffff1660e01b815260040162000c8b919062004019565b60206040518083038186803b15801562000ca457600080fd5b505afa15801562000cb9573d6000803e3d6000fd5b505050506040513d601f19601f8201168201806040525081019062000cdf9190620033a7565b73ffffffffffffffffffffffffffffffffffffffff161462000d6f578473ffffffffffffffffffffffffffffffffffffffff166323b872dd3383876040518463ffffffff1660e01b815260040162000d3a9392919062003bcb565b600060405180830381600087803b15801562000d5557600080fd5b505af115801562000d6a573d6000803e3d6000fd5b505050505b600062000d7d868662001196565b90506000600f600083815260200190815260200160002054141562000dcd57600d600081548092919062000db190620042eb565b91905055600f6000838152602001908152602001600020819055505b6040518061012001604052808773ffffffffffffffffffffffffffffffffffffffff1681526020018681526020013373ffffffffffffffffffffffffffffffffffffffff1681526020018373ffffffffffffffffffffffffffffffffffffffff1681526020018573ffffffffffffffffffffffffffffffffffffffff168152602001848152602001600e6000600f6000868152602001908152602001600020548152602001908152602001600020600601548152602001600e6000600f60008681526020019081526020016000205481526020019081526020016000206007015481526020016001600381111562000eee577f4e487b7100000000000000000000000000000000000000000000000000000000600052602160045260246000fd5b815250600e6000600f600085815260200190815260200160002054815260200190815260200160002060008201518160000160006101000a81548173ffffffffffffffffffffffffffffffffffffffff021916908373ffffffffffffffffffffffffffffffffffffffff1602179055506020820151816001015560408201518160020160006101000a81548173ffffffffffffffffffffffffffffffffffffffff021916908373ffffffffffffffffffffffffffffffffffffffff16021790555060608201518160030160006101000a81548173ffffffffffffffffffffffffffffffffffffffff021916908373ffffffffffffffffffffffffffffffffffffffff16021790555060808201518160040160006101000a81548173ffffffffffffffffffffffffffffffffffffffff021916908373ffffffffffffffffffffffffffffffffffffffff16021790555060a0820151816005015560c0820151816006015560e082015181600701556101008201518160080160006101000a81548160ff02191690836003811115620010ae577f4e487b7100000000000000000000000000000000000000000000000000000000600052602160045260246000fd5b02179055509050508573ffffffffffffffffffffffffffffffffffffffff163373ffffffffffffffffffffffffffffffffffffffff167f20e39ccb28ff62b0dd3a76715db2c58ac9712bb67fb9527d9cfc73e15c0ba29687866040516200111792919062004036565b60405180910390a3505050505050565b606062001135600762002b6c565b905090565b6200114462002955565b6103e88111156200118c576040517f08c379a0000000000000000000000000000000000000000000000000000000008152600401620011839062003e5f565b60405180910390fd5b8060028190555050565b60008282604051602001620011ad92919062003b4e565b60405160208183030381529060405280519060200120905092915050565b6000620011d9848462001196565b90506000600f60008381526020019081526020016000205490506000600e6000838152602001908152602001600020604051806101200160405290816000820160009054906101000a900473ffffffffffffffffffffffffffffffffffffffff1673ffffffffffffffffffffffffffffffffffffffff1673ffffffffffffffffffffffffffffffffffffffff168152602001600182015481526020016002820160009054906101000a900473ffffffffffffffffffffffffffffffffffffffff1673ffffffffffffffffffffffffffffffffffffffff1673ffffffffffffffffffffffffffffffffffffffff1681526020016003820160009054906101000a900473ffffffffffffffffffffffffffffffffffffffff1673ffffffffffffffffffffffffffffffffffffffff1673ffffffffffffffffffffffffffffffffffffffff1681526020016004820160009054906101000a900473ffffffffffffffffffffffffffffffffffffffff1673ffffffffffffffffffffffffffffffffffffffff1673ffffffffffffffffffffffffffffffffffffffff1681526020016005820154815260200160068201548152602001600782015481526020016008820160009054906101000a900460ff166003811115620013e0577f4e487b7100000000000000000000000000000000000000000000000000000000600052602160045260246000fd5b600381111562001419577f4e487b7100000000000000000000000000000000000000000000000000000000600052602160045260246000fd5b815250509050600160038111156200145a577f4e487b7100000000000000000000000000000000000000000000000000000000600052602160045260246000fd5b816101000151600381111562001499577f4e487b7100000000000000000000000000000000000000000000000000000000600052602160045260246000fd5b14806200152d575060026003811115620014dc577f4e487b7100000000000000000000000000000000000000000000000000000000600052602160045260246000fd5b81610100015160038111156200151b577f4e487b7100000000000000000000000000000000000000000000000000000000600052602160045260246000fd5b1480156200152c5750428160e00151105b5b6200156f576040517f08c379a0000000000000000000000000000000000000000000000000000000008152600401620015669062003dd7565b60405180910390fd5b60008411620015b5576040517f08c379a0000000000000000000000000000000000000000000000000000000008152600401620015ac9062003f91565b60405180910390fd5b8573ffffffffffffffffffffffffffffffffffffffff16636352211e866040518263ffffffff1660e01b8152600401620015f0919062004019565b60206040518083038186803b1580156200160957600080fd5b505afa1580156200161e573d6000803e3d6000fd5b505050506040513d601f19601f82011682018060405250810190620016449190620033a7565b73ffffffffffffffffffffffffffffffffffffffff16816060015173ffffffffffffffffffffffffffffffffffffffff1614620016b8576040517f08c379a0000000000000000000000000000000000000000000000000000000008152600401620016af9062003df9565b60405180910390fd5b6000620016d3858360a0015162002b8f90919063ffffffff16565b9050600073ffffffffffffffffffffffffffffffffffffffff16826080015173ffffffffffffffffffffffffffffffffffffffff161415620017555780341462001754576040517f08c379a00000000000000000000000000000000000000000000000000000000081526004016200174b9062003f09565b60405180910390fd5b5b600062001784612710620017756002548562002b8f90919063ffffffff16565b62002ba790919063ffffffff16565b905060006200179d828462002bbf90919063ffffffff16565b905060006200180e612710620017ff600c60008e73ffffffffffffffffffffffffffffffffffffffff1673ffffffffffffffffffffffffffffffffffffffff168152602001908152602001600020600101548662002b8f90919063ffffffff16565b62002ba790919063ffffffff16565b905062001825818462002bbf90919063ffffffff16565b92506200183d85608001513387604001518562002bd7565b620018b1856080015133600c60008e73ffffffffffffffffffffffffffffffffffffffff1673ffffffffffffffffffffffffffffffffffffffff16815260200190815260200160002060000160009054906101000a900473ffffffffffffffffffffffffffffffffffffffff168462002bd7565b620018e5856080015133600360009054906101000a900473ffffffffffffffffffffffffffffffffffffffff168662002bd7565b601060008154620018f690620042eb565b9190508190558560c001818152505062001930620019208960015462002b8f90919063ffffffff16565b4262002c6690919063ffffffff16565b8560e0018181525050600285610100019060038111156200197a577f4e487b7100000000000000000000000000000000000000000000000000000000600052602160045260246000fd5b90816003811115620019b5577f4e487b7100000000000000000000000000000000000000000000000000000000600052602160045260246000fd5b8152505084600e600088815260200190815260200160002060008201518160000160006101000a81548173ffffffffffffffffffffffffffffffffffffffff021916908373ffffffffffffffffffffffffffffffffffffffff1602179055506020820151816001015560408201518160020160006101000a81548173ffffffffffffffffffffffffffffffffffffffff021916908373ffffffffffffffffffffffffffffffffffffffff16021790555060608201518160030160006101000a81548173ffffffffffffffffffffffffffffffffffffffff021916908373ffffffffffffffffffffffffffffffffffffffff16021790555060808201518160040160006101000a81548173ffffffffffffffffffffffffffffffffffffffff021916908373ffffffffffffffffffffffffffffffffffffffff16021790555060a0820151816005015560c0820151816006015560e082015181600701556101008201518160080160006101000a81548160ff0219169083600381111562001b64577f4e487b7100000000000000000000000000000000000000000000000000000000600052602160045260246000fd5b02179055509050506040518060a001604052803373ffffffffffffffffffffffffffffffffffffffff1681526020018b73ffffffffffffffffffffffffffffffffffffffff1681526020018a8152602001866060015173ffffffffffffffffffffffffffffffffffffffff1681526020018660e0015181525060116000601054815260200190815260200160002060008201518160000160006101000a81548173ffffffffffffffffffffffffffffffffffffffff021916908373ffffffffffffffffffffffffffffffffffffffff16021790555060208201518160010160006101000a81548173ffffffffffffffffffffffffffffffffffffffff021916908373ffffffffffffffffffffffffffffffffffffffff1602179055506040820151816002015560608201518160030160006101000a81548173ffffffffffffffffffffffffffffffffffffffff021916908373ffffffffffffffffffffffffffffffffffffffff1602179055506080820151816004015590505062001d70601054601260003373ffffffffffffffffffffffffffffffffffffffff1673ffffffffffffffffffffffffffffffffffffffff16815260200190815260200160002060008d73ffffffffffffffffffffffffffffffffffffffff1673ffffffffffffffffffffffffffffffffffffffff16815260200190815260200160002062002c7e90919063ffffffff16565b508973ffffffffffffffffffffffffffffffffffffffff163373ffffffffffffffffffffffffffffffffffffffff167f4bf6c5d0b351cb0c55b9cb229601db1286e19e42ede2fb923f8a29fe1c4fc3468760c001518c60405162001dd692919062004036565b60405180910390a350505050505050505050565b600073ffffffffffffffffffffffffffffffffffffffff16600660003373ffffffffffffffffffffffffffffffffffffffff1673ffffffffffffffffffffffffffffffffffffffff16815260200190815260200160002060009054906101000a900473ffffffffffffffffffffffffffffffffffffffff1673ffffffffffffffffffffffffffffffffffffffff161462001ebb576040517f08c379a000000000000000000000000000000000000000000000000000000000815260040162001eb29062003ec5565b60405180910390fd5b62001ec63362002a3e565b565b600d5481565b62001ed862002955565b62001ee4600062002c9a565b565b62001ef062002955565b6103e881111562001f38576040517f08c379a000000000000000000000000000000000000000000000000000000000815260040162001f2f9062003f6f565b60405180910390fd5b82600360006101000a81548173ffffffffffffffffffffffffffffffffffffffff021916908373ffffffffffffffffffffffffffffffffffffffff160217905550816001819055508060028190555062001f9e60006007620029da90919063ffffffff16565b50505050565b60008060009054906101000a900473ffffffffffffffffffffffffffffffffffffffff16905090565b600360009054906101000a900473ffffffffffffffffffffffffffffffffffffffff1681565b600c6020528060005260406000206000915090508060000160009054906101000a900473ffffffffffffffffffffffffffffffffffffffff16908060010154905082565b61271081565b60606200204b600462002b6c565b905090565b60066020528060005260406000206000915054906101000a900473ffffffffffffffffffffffffffffffffffffffff1681565b606060006200210d601260008673ffffffffffffffffffffffffffffffffffffffff1673ffffffffffffffffffffffffffffffffffffffff16815260200190815260200160002060008573ffffffffffffffffffffffffffffffffffffffff1673ffffffffffffffffffffffffffffffffffffffff16815260200190815260200160002062002d5e565b90506000805b8251811015620021a35742601160008584815181106200215c577f4e487b7100000000000000000000000000000000000000000000000000000000600052603260045260246000fd5b6020026020010151815260200190815260200160002060040154106200218d5781806200218990620042eb565b9250505b80806200219a90620042eb565b91505062002113565b506000811415620021b657505062002488565b8067ffffffffffffffff811115620021f7577f4e487b7100000000000000000000000000000000000000000000000000000000600052604160045260246000fd5b6040519080825280602002602001820160405280156200223457816020015b6200222062003289565b815260200190600190039081620022165790505b5092506000805b83518110156200248357426011600086848151811062002284577f4e487b7100000000000000000000000000000000000000000000000000000000600052603260045260246000fd5b6020026020010151815260200190815260200160002060040154106200246d5760116000858381518110620022e2577f4e487b7100000000000000000000000000000000000000000000000000000000600052603260045260246000fd5b602002602001015181526020019081526020016000206040518060a00160405290816000820160009054906101000a900473ffffffffffffffffffffffffffffffffffffffff1673ffffffffffffffffffffffffffffffffffffffff1673ffffffffffffffffffffffffffffffffffffffff1681526020016001820160009054906101000a900473ffffffffffffffffffffffffffffffffffffffff1673ffffffffffffffffffffffffffffffffffffffff1673ffffffffffffffffffffffffffffffffffffffff168152602001600282015481526020016003820160009054906101000a900473ffffffffffffffffffffffffffffffffffffffff1673ffffffffffffffffffffffffffffffffffffffff1673ffffffffffffffffffffffffffffffffffffffff1681526020016004820154815250508583806200242790620042eb565b94508151811062002461577f4e487b7100000000000000000000000000000000000000000000000000000000600052603260045260246000fd5b60200260200101819052505b80806200247a90620042eb565b9150506200223b565b505050505b92915050565b60116020528060005260406000206000915090508060000160009054906101000a900473ffffffffffffffffffffffffffffffffffffffff16908060010160009054906101000a900473ffffffffffffffffffffffffffffffffffffffff16908060020154908060030160009054906101000a900473ffffffffffffffffffffffffffffffffffffffff16908060040154905085565b60105481565b60015481565b60025481565b60096020528060005260406000206000915090505481565b6200255862002955565b6200256e816007620029da90919063ffffffff16565b5050565b6200257c62002955565b600073ffffffffffffffffffffffffffffffffffffffff168173ffffffffffffffffffffffffffffffffffffffff161415620025ef576040517f08c379a0000000000000000000000000000000000000000000000000000000008152600401620025e69062003e3d565b60405180910390fd5b620025fa8162002c9a565b50565b60006200260b838362001196565b90506000600f6000838152602001908152602001600020549050600e600082815260200190815260200160002060020160009054906101000a900473ffffffffffffffffffffffffffffffffffffffff1673ffffffffffffffffffffffffffffffffffffffff163373ffffffffffffffffffffffffffffffffffffffff1614620026cc576040517f08c379a0000000000000000000000000000000000000000000000000000000008152600401620026c39062003ee7565b60405180910390fd5b60038081111562002706577f4e487b7100000000000000000000000000000000000000000000000000000000600052602160045260246000fd5b600e600083815260200190815260200160002060080160009054906101000a900460ff16600381111562002763577f4e487b7100000000000000000000000000000000000000000000000000000000600052602160045260246000fd5b1415620027a7576040517f08c379a00000000000000000000000000000000000000000000000000000000081526004016200279e9062003fb3565b60405180910390fd5b6003600e600083815260200190815260200160002060080160006101000a81548160ff0219169083600381111562002808577f4e487b7100000000000000000000000000000000000000000000000000000000600052602160045260246000fd5b02179055508373ffffffffffffffffffffffffffffffffffffffff163373ffffffffffffffffffffffffffffffffffffffff167f29c8b07909eafbd082921d07edc6a036182ce741ce3ec4f6ebf972abaea877b8856040516200286c919062004019565b60405180910390a350505050565b600e6020528060005260406000206000915090508060000160009054906101000a900473ffffffffffffffffffffffffffffffffffffffff16908060010154908060020160009054906101000a900473ffffffffffffffffffffffffffffffffffffffff16908060030160009054906101000a900473ffffffffffffffffffffffffffffffffffffffff16908060040160009054906101000a900473ffffffffffffffffffffffffffffffffffffffff16908060050154908060060154908060070154908060080160009054906101000a900460ff16905089565b6200295f62002d81565b73ffffffffffffffffffffffffffffffffffffffff166200297f62001fa4565b73ffffffffffffffffffffffffffffffffffffffff1614620029d8576040517f08c379a0000000000000000000000000000000000000000000000000000000008152600401620029cf9062003f4d565b60405180910390fd5b565b600062002a04836000018373ffffffffffffffffffffffffffffffffffffffff1660001b62002d89565b905092915050565b600062002a36836000018373ffffffffffffffffffffffffffffffffffffffff1660001b62002dfd565b905092915050565b60003060405162002a4f90620032fa565b62002a5b919062003bae565b604051809103906000f08015801562002a78573d6000803e3d6000fd5b5090508073ffffffffffffffffffffffffffffffffffffffff1663f2fde38b836040518263ffffffff1660e01b815260040162002ab6919062003bae565b600060405180830381600087803b15801562002ad157600080fd5b505af115801562002ae6573d6000803e3d6000fd5b5050505080600660008473ffffffffffffffffffffffffffffffffffffffff1673ffffffffffffffffffffffffffffffffffffffff16815260200190815260200160002060006101000a81548173ffffffffffffffffffffffffffffffffffffffff021916908373ffffffffffffffffffffffffffffffffffffffff1602179055505050565b6060600062002b7e8360000162002e20565b905060608190508092505050919050565b6000818362002b9f91906200419c565b905092915050565b6000818362002bb7919062004164565b905092915050565b6000818362002bcf9190620041fd565b905092915050565b600081141562002be75762002c60565b600073ffffffffffffffffffffffffffffffffffffffff168473ffffffffffffffffffffffffffffffffffffffff16141562002c2f5762002c29828262002e7e565b62002c5f565b62002c5e8383838773ffffffffffffffffffffffffffffffffffffffff1662002f47909392919063ffffffff16565b5b5b50505050565b6000818362002c76919062004107565b905092915050565b600062002c92836000018360001b62002d89565b905092915050565b60008060009054906101000a900473ffffffffffffffffffffffffffffffffffffffff169050816000806101000a81548173ffffffffffffffffffffffffffffffffffffffff021916908373ffffffffffffffffffffffffffffffffffffffff1602179055508173ffffffffffffffffffffffffffffffffffffffff168173ffffffffffffffffffffffffffffffffffffffff167f8be0079c531659141344cd1fd0a4f28419497f9722a3daafe3b4186f6b6457e060405160405180910390a35050565b6060600062002d708360000162002e20565b905060608190508092505050919050565b600033905090565b600062002d97838362002dfd565b62002df257826000018290806001815401808255809150506001900390600052602060002001600090919091909150558260000180549050836001016000848152602001908152602001600020819055506001905062002df7565b600090505b92915050565b600080836001016000848152602001908152602001600020541415905092915050565b60608160000180548060200260200160405190810160405280929190818152602001828054801562002e7257602002820191906000526020600020905b81548152602001906001019080831162002e5d575b50505050509050919050565b600081141562002e8e5762002f43565b60008273ffffffffffffffffffffffffffffffffffffffff168260405162002eb69062003b97565b60006040518083038185875af1925050503d806000811462002ef5576040519150601f19603f3d011682016040523d82523d6000602084013e62002efa565b606091505b505090508062002f41576040517f08c379a000000000000000000000000000000000000000000000000000000000815260040162002f389062003e1b565b60405180910390fd5b505b5050565b62002fce846323b872dd60e01b85858560405160240162002f6b9392919062003bcb565b604051602081830303815290604052907bffffffffffffffffffffffffffffffffffffffffffffffffffffffff19166020820180517bffffffffffffffffffffffffffffffffffffffffffffffffffffffff838183161783525050505062002fd4565b50505050565b600062003038826040518060400160405280602081526020017f5361666545524332303a206c6f772d6c6576656c2063616c6c206661696c65648152508573ffffffffffffffffffffffffffffffffffffffff16620030a39092919063ffffffff16565b90506000815111156200309e57808060200190518101906200305b91906200356d565b6200309d576040517f08c379a0000000000000000000000000000000000000000000000000000000008152600401620030949062003ff7565b60405180910390fd5b5b505050565b6060620030b48484600085620030bd565b90509392505050565b60608247101562003105576040517f08c379a0000000000000000000000000000000000000000000000000000000008152600401620030fc9062003ea3565b60405180910390fd5b6000808673ffffffffffffffffffffffffffffffffffffffff16858760405162003130919062003b7e565b60006040518083038185875af1925050503d80600081146200316f576040519150601f19603f3d011682016040523d82523d6000602084013e62003174565b606091505b5091509150620031878783838762003193565b92505050949350505050565b60608315620031fe57600083511415620031f557620031b28562003213565b620031f4576040517f08c379a0000000000000000000000000000000000000000000000000000000008152600401620031eb9062003fd5565b60405180910390fd5b5b8290506200320b565b6200320a838362003236565b5b949350505050565b6000808273ffffffffffffffffffffffffffffffffffffffff163b119050919050565b6000825111156200324a5781518083602001fd5b806040517f08c379a000000000000000000000000000000000000000000000000000000000815260040162003280919062003db3565b60405180910390fd5b6040518060a00160405280600073ffffffffffffffffffffffffffffffffffffffff168152602001600073ffffffffffffffffffffffffffffffffffffffff16815260200160008152602001600073ffffffffffffffffffffffffffffffffffffffff168152602001600081525090565b610a26806200481083390190565b6000813590506200331981620047a7565b92915050565b6000815190506200333081620047a7565b92915050565b6000815190506200334781620047c1565b92915050565b6000813590506200335e81620047db565b92915050565b6000813590506200337581620047f5565b92915050565b6000602082840312156200338e57600080fd5b60006200339e8482850162003308565b91505092915050565b600060208284031215620033ba57600080fd5b6000620033ca848285016200331f565b91505092915050565b60008060408385031215620033e757600080fd5b6000620033f78582860162003308565b92505060206200340a8582860162003308565b9150509250929050565b6000806000606084860312156200342a57600080fd5b60006200343a8682870162003308565b93505060206200344d8682870162003308565b9250506040620034608682870162003364565b9150509250925092565b600080604083850312156200347e57600080fd5b60006200348e8582860162003308565b9250506020620034a18582860162003364565b9150509250929050565b60008060008060808587031215620034c257600080fd5b6000620034d28782880162003308565b9450506020620034e58782880162003364565b9350506040620034f88782880162003308565b92505060606200350b8782880162003364565b91505092959194509250565b6000806000606084860312156200352d57600080fd5b60006200353d8682870162003308565b9350506020620035508682870162003364565b9250506040620035638682870162003364565b9150509250925092565b6000602082840312156200358057600080fd5b6000620035908482850162003336565b91505092915050565b600060208284031215620035ac57600080fd5b6000620035bc848285016200334d565b91505092915050565b600060208284031215620035d857600080fd5b6000620035e88482850162003364565b91505092915050565b6000620035ff838362003625565b60208301905092915050565b600062003619838362003a9f565b60a08301905092915050565b620036308162004238565b82525050565b620036418162004238565b82525050565b6200365c620036568262004238565b62004339565b82525050565b60006200366f8262004083565b6200367b8185620040c9565b9350620036888362004063565b8060005b83811015620036bf578151620036a38882620035f1565b9750620036b083620040af565b9250506001810190506200368c565b5085935050505092915050565b6000620036d9826200408e565b620036e58185620040da565b9350620036f28362004073565b8060005b83811015620037295781516200370d88826200360b565b97506200371a83620040bc565b925050600181019050620036f6565b5085935050505092915050565b62003741816200424c565b82525050565b620037528162004258565b82525050565b6000620037658262004099565b620037718185620040eb565b935062003783818560208601620042b5565b80840191505092915050565b6200379a81620042a1565b82525050565b6000620037ad82620040a4565b620037b98185620040f6565b9350620037cb818560208601620042b5565b620037d681620043f8565b840191505092915050565b6000620037f0601583620040f6565b9150620037fd8262004416565b602082019050919050565b600062003817602083620040f6565b915062003824826200443f565b602082019050919050565b60006200383e601183620040f6565b91506200384b8262004468565b602082019050919050565b600062003865602683620040f6565b9150620038728262004491565b604082019050919050565b60006200388c601283620040f6565b91506200389982620044e0565b602082019050919050565b6000620038b3602183620040f6565b9150620038c08262004509565b604082019050919050565b6000620038da602683620040f6565b9150620038e78262004558565b604082019050919050565b600062003901601883620040f6565b91506200390e82620045a7565b602082019050919050565b600062003928602c83620040f6565b91506200393582620045d0565b604082019050919050565b60006200394f600983620040f6565b91506200395c826200461f565b602082019050919050565b600062003976601a83620040f6565b9150620039838262004648565b602082019050919050565b60006200399d602083620040f6565b9150620039aa8262004671565b602082019050919050565b6000620039c4601283620040f6565b9150620039d1826200469a565b602082019050919050565b6000620039eb601583620040f6565b9150620039f882620046c3565b602082019050919050565b600062003a12601b83620040f6565b915062003a1f82620046ec565b602082019050919050565b600062003a39600083620040eb565b915062003a468262004715565b600082019050919050565b600062003a60601d83620040f6565b915062003a6d8262004718565b602082019050919050565b600062003a87602a83620040f6565b915062003a948262004741565b604082019050919050565b60a08201600082015162003ab7600085018262003625565b50602082015162003acc602085018262003625565b50604082015162003ae1604085018262003b11565b50606082015162003af6606085018262003625565b50608082015162003b0b608085018262003b11565b50505050565b62003b1c8162004297565b82525050565b62003b2d8162004297565b82525050565b62003b4862003b428262004297565b62004361565b82525050565b600062003b5c828562003647565b60148201915062003b6e828462003b33565b6020820191508190509392505050565b600062003b8c828462003758565b915081905092915050565b600062003ba48262003a2a565b9150819050919050565b600060208201905062003bc5600083018462003636565b92915050565b600060608201905062003be2600083018662003636565b62003bf1602083018562003636565b62003c00604083018462003b22565b949350505050565b600060a08201905062003c1f600083018862003636565b62003c2e602083018762003636565b62003c3d604083018662003b22565b62003c4c606083018562003636565b62003c5b608083018462003b22565b9695505050505050565b600060408201905062003c7c600083018562003636565b62003c8b602083018462003b22565b9392505050565b60006101208201905062003caa600083018c62003636565b62003cb9602083018b62003b22565b62003cc8604083018a62003636565b62003cd7606083018962003636565b62003ce6608083018862003636565b62003cf560a083018762003b22565b62003d0460c083018662003b22565b62003d1360e083018562003b22565b62003d236101008301846200378f565b9a9950505050505050505050565b6000602082019050818103600083015262003d4d818462003662565b905092915050565b6000602082019050818103600083015262003d718184620036cc565b905092915050565b600060208201905062003d90600083018462003736565b92915050565b600060208201905062003dad600083018462003747565b92915050565b6000602082019050818103600083015262003dcf8184620037a0565b905092915050565b6000602082019050818103600083015262003df281620037e1565b9050919050565b6000602082019050818103600083015262003e148162003808565b9050919050565b6000602082019050818103600083015262003e36816200382f565b9050919050565b6000602082019050818103600083015262003e588162003856565b9050919050565b6000602082019050818103600083015262003e7a816200387d565b9050919050565b6000602082019050818103600083015262003e9c81620038a4565b9050919050565b6000602082019050818103600083015262003ebe81620038cb565b9050919050565b6000602082019050818103600083015262003ee081620038f2565b9050919050565b6000602082019050818103600083015262003f028162003919565b9050919050565b6000602082019050818103600083015262003f248162003940565b9050919050565b6000602082019050818103600083015262003f468162003967565b9050919050565b6000602082019050818103600083015262003f68816200398e565b9050919050565b6000602082019050818103600083015262003f8a81620039b5565b9050919050565b6000602082019050818103600083015262003fac81620039dc565b9050919050565b6000602082019050818103600083015262003fce8162003a03565b9050919050565b6000602082019050818103600083015262003ff08162003a51565b9050919050565b60006020820190508181036000830152620040128162003a78565b9050919050565b600060208201905062004030600083018462003b22565b92915050565b60006040820190506200404d600083018562003b22565b6200405c602083018462003b22565b9392505050565b6000819050602082019050919050565b6000819050602082019050919050565b600081519050919050565b600081519050919050565b600081519050919050565b600081519050919050565b6000602082019050919050565b6000602082019050919050565b600082825260208201905092915050565b600082825260208201905092915050565b600081905092915050565b600082825260208201905092915050565b6000620041148262004297565b9150620041218362004297565b9250827fffffffffffffffffffffffffffffffffffffffffffffffffffffffffffffffff038211156200415957620041586200436b565b5b828201905092915050565b6000620041718262004297565b91506200417e8362004297565b9250826200419157620041906200439a565b5b828204905092915050565b6000620041a98262004297565b9150620041b68362004297565b9250817fffffffffffffffffffffffffffffffffffffffffffffffffffffffffffffffff0483118215151615620041f257620041f16200436b565b5b828202905092915050565b60006200420a8262004297565b9150620042178362004297565b9250828210156200422d576200422c6200436b565b5b828203905092915050565b6000620042458262004277565b9050919050565b60008115159050919050565b6000819050919050565b6000819050620042728262004790565b919050565b600073ffffffffffffffffffffffffffffffffffffffff82169050919050565b6000819050919050565b6000620042ae8262004262565b9050919050565b60005b83811015620042d5578082015181840152602081019050620042b8565b83811115620042e5576000848401525b50505050565b6000620042f88262004297565b91507fffffffffffffffffffffffffffffffffffffffffffffffffffffffffffffffff8214156200432e576200432d6200436b565b5b600182019050919050565b600062004346826200434d565b9050919050565b60006200435a8262004409565b9050919050565b6000819050919050565b7f4e487b7100000000000000000000000000000000000000000000000000000000600052601160045260246000fd5b7f4e487b7100000000000000000000000000000000000000000000000000000000600052601260045260246000fd5b7f4e487b7100000000000000000000000000000000000000000000000000000000600052602160045260246000fd5b6000601f19601f8301169050919050565b60008160601b9050919050565b7f546f6b656e206973206e6f742072656e7461626c650000000000000000000000600082015250565b7f546f6b656e20776173206e6f74206f776e656420627920697473207661756c74600082015250565b7f53454e445f45544845525f4641494c4544000000000000000000000000000000600082015250565b7f4f776e61626c653a206e6577206f776e657220697320746865207a65726f206160008201527f6464726573730000000000000000000000000000000000000000000000000000602082015250565b7f436f6d6d697373696f6e20746f6f206269670000000000000000000000000000600082015250565b7f5061796d656e7420636f6e7472616374206973206e6f7420737570706f72746560008201527f6400000000000000000000000000000000000000000000000000000000000000602082015250565b7f416464726573733a20696e73756666696369656e742062616c616e636520666f60008201527f722063616c6c0000000000000000000000000000000000000000000000000000602082015250565b7f596f7520616c726561647920686176652061207661756c740000000000000000600082015250565b7f556e64656c65676174652063616e206f6e6c7920626520646f6e65206279207460008201527f6865206465706f7369746f720000000000000000000000000000000000000000602082015250565b7f57524f4e475f4645450000000000000000000000000000000000000000000000600082015250565b7f506172746e657220636f6d6d697373696f6e20746f6f20626967000000000000600082015250565b7f4f776e61626c653a2063616c6c6572206973206e6f7420746865206f776e6572600082015250565b7f636f6d6d697373696f6e20746f6f206269670000000000000000000000000000600082015250565b7f52656e7420706572696f6420746f6f2073686f72740000000000000000000000600082015250565b7f546f6b656e20697320616c726561647920554e52454e5441424c450000000000600082015250565b50565b7f416464726573733a2063616c6c20746f206e6f6e2d636f6e7472616374000000600082015250565b7f5361666545524332303a204552433230206f7065726174696f6e20646964206e60008201527f6f74207375636365656400000000000000000000000000000000000000000000602082015250565b60048110620047a457620047a3620043c9565b5b50565b620047b28162004238565b8114620047be57600080fd5b50565b620047cc816200424c565b8114620047d857600080fd5b50565b620047e68162004258565b8114620047f257600080fd5b50565b620048008162004297565b81146200480c57600080fd5b5056fe608060405234801561001057600080fd5b50604051610a26380380610a2683398181016040528101906100329190610176565b61004e61004361009560201b60201c565b61009d60201b60201c565b80600160006101000a81548173ffffffffffffffffffffffffffffffffffffffff021916908373ffffffffffffffffffffffffffffffffffffffff160217905550506101e8565b600033905090565b60008060009054906101000a900473ffffffffffffffffffffffffffffffffffffffff169050816000806101000a81548173ffffffffffffffffffffffffffffffffffffffff021916908373ffffffffffffffffffffffffffffffffffffffff1602179055508173ffffffffffffffffffffffffffffffffffffffff168173ffffffffffffffffffffffffffffffffffffffff167f8be0079c531659141344cd1fd0a4f28419497f9722a3daafe3b4186f6b6457e060405160405180910390a35050565b600081519050610170816101d1565b92915050565b60006020828403121561018857600080fd5b600061019684828501610161565b91505092915050565b60006101aa826101b1565b9050919050565b600073ffffffffffffffffffffffffffffffffffffffff82169050919050565b6101da8161019f565b81146101e557600080fd5b50565b61082f806101f76000396000f3fe608060405234801561001057600080fd5b50600436106100575760003560e01c80632423e90d1461005c578063715018a61461007a5780638da5cb5b14610084578063d2f0922a146100a2578063f2fde38b146100be575b600080fd5b6100646100da565b60405161007191906105df565b60405180910390f35b610082610100565b005b61008c610114565b60405161009991906105df565b60405180910390f35b6100bc60048036038101906100b791906104e0565b61013d565b005b6100d860048036038101906100d391906104b7565b6102aa565b005b600160009054906101000a900473ffffffffffffffffffffffffffffffffffffffff1681565b61010861032e565b61011260006103ac565b565b60008060009054906101000a900473ffffffffffffffffffffffffffffffffffffffff16905090565b61014561032e565b8282600160009054906101000a900473ffffffffffffffffffffffffffffffffffffffff1673ffffffffffffffffffffffffffffffffffffffff1663094f743e83836040518363ffffffff1660e01b81526004016101a4929190610631565b60206040518083038186803b1580156101bc57600080fd5b505afa1580156101d0573d6000803e3d6000fd5b505050506040513d601f19601f820116820180604052508101906101f4919061052f565b15610234576040517f08c379a000000000000000000000000000000000000000000000000000000000815260040161022b9061067a565b60405180910390fd5b8473ffffffffffffffffffffffffffffffffffffffff166323b872dd3085876040518463ffffffff1660e01b8152600401610271939291906105fa565b600060405180830381600087803b15801561028b57600080fd5b505af115801561029f573d6000803e3d6000fd5b505050505050505050565b6102b261032e565b600073ffffffffffffffffffffffffffffffffffffffff168173ffffffffffffffffffffffffffffffffffffffff161415610322576040517f08c379a00000000000000000000000000000000000000000000000000000000081526004016103199061065a565b60405180910390fd5b61032b816103ac565b50565b610336610470565b73ffffffffffffffffffffffffffffffffffffffff16610354610114565b73ffffffffffffffffffffffffffffffffffffffff16146103aa576040517f08c379a00000000000000000000000000000000000000000000000000000000081526004016103a19061069a565b60405180910390fd5b565b60008060009054906101000a900473ffffffffffffffffffffffffffffffffffffffff169050816000806101000a81548173ffffffffffffffffffffffffffffffffffffffff021916908373ffffffffffffffffffffffffffffffffffffffff1602179055508173ffffffffffffffffffffffffffffffffffffffff168173ffffffffffffffffffffffffffffffffffffffff167f8be0079c531659141344cd1fd0a4f28419497f9722a3daafe3b4186f6b6457e060405160405180910390a35050565b600033905090565b600081359050610487816107b4565b92915050565b60008151905061049c816107cb565b92915050565b6000813590506104b1816107e2565b92915050565b6000602082840312156104c957600080fd5b60006104d784828501610478565b91505092915050565b6000806000606084860312156104f557600080fd5b600061050386828701610478565b9350506020610514868287016104a2565b925050604061052586828701610478565b9150509250925092565b60006020828403121561054157600080fd5b600061054f8482850161048d565b91505092915050565b610561816106cb565b82525050565b60006105746026836106ba565b915061057f82610713565b604082019050919050565b60006105976018836106ba565b91506105a282610762565b602082019050919050565b60006105ba6020836106ba565b91506105c58261078b565b602082019050919050565b6105d981610709565b82525050565b60006020820190506105f46000830184610558565b92915050565b600060608201905061060f6000830186610558565b61061c6020830185610558565b61062960408301846105d0565b949350505050565b60006040820190506106466000830185610558565b61065360208301846105d0565b9392505050565b6000602082019050818103600083015261067381610567565b9050919050565b600060208201905081810360008301526106938161058a565b9050919050565b600060208201905081810360008301526106b3816105ad565b9050919050565b600082825260208201905092915050565b60006106d6826106e9565b9050919050565b60008115159050919050565b600073ffffffffffffffffffffffffffffffffffffffff82169050919050565b6000819050919050565b7f4f776e61626c653a206e6577206f776e657220697320746865207a65726f206160008201527f6464726573730000000000000000000000000000000000000000000000000000602082015250565b7f52656e7446756e3a20546f6b656e2069732072656e7465640000000000000000600082015250565b7f4f776e61626c653a2063616c6c6572206973206e6f7420746865206f776e6572600082015250565b6107bd816106cb565b81146107c857600080fd5b50565b6107d4816106dd565b81146107df57600080fd5b50565b6107eb81610709565b81146107f657600080fd5b5056fea2646970667358221220df551ed5e333ab8a0b7b338d20ee5cef99131f2a2bda017785e00b1364c2a95a64736f6c63430008040033a26469706673582212206162a04b9046a4e8556c21a326957a51924cc5733c4d4bd26c7a8659497aafa264736f6c63430008040033",
  "devdoc": {
    "kind": "dev",
    "methods": {
      "cancelLend(address,uint256)": {
        "params": {
          "contract_": "The NFToken contract that issue the tokens",
          "tokenId": "The id the NFToken"
        }
      },
      "getTokenHash(address,uint256)": {
        "details": "Helper function to compute hash for a given token"
      },
      "lend(address,uint256,address,uint256)": {
        "params": {
          "contract_": "The NFToken contract that issue the tokens",
          "payment": "The contract of payment way",
          "tokenId": "The id the NFToken",
          "unitFee": "The unit rental price"
        }
      },
      "owner()": {
        "details": "Returns the address of the current owner."
      },
      "renounceOwnership()": {
        "details": "Leaves the contract without owner. It will not be possible to call `onlyOwner` functions anymore. Can only be called by the current owner. NOTE: Renouncing ownership will leave the contract without an owner, thereby removing any functionality that is only available to the owner."
      },
      "rent(address,uint256,uint256)": {
        "params": {
          "amount": "The amount of unitTime and this rental's total time will be unitTime * amount",
          "contract_": "The NFToken contract that issue the tokens",
          "tokenId": "The id the NFToken"
        }
      },
      "transferOwnership(address)": {
        "details": "Transfers ownership of the contract to a new account (`newOwner`). Can only be called by the current owner."
      }
    },
    "version": 1
  },
  "userdoc": {
    "events": {
      "LentCanceled(address,address,uint256)": {
        "notice": "Emitted on each token lent cancel"
      },
      "TokenLent(address,address,uint256,uint256)": {
        "notice": "Emitted on each token lent"
      },
      "TokenRented(address,uint256,address,uint256)": {
        "notice": "Emitted on each token rental"
      }
    },
    "kind": "user",
    "methods": {
      "addPayment(address)": {
        "notice": "add payment"
      },
      "cancelLend(address,uint256)": {
        "notice": "cancel lend an NFToken will just make it unrentable, the exist rents won't be affected."
      },
      "createVault()": {
        "notice": "create a vault owned by msg.sender"
      },
      "getAliveRentals(address,address)": {
        "notice": "check all alive rentals for a given renter."
      },
      "getOwners()": {
        "notice": "owners getter"
      },
      "getPaymentContracts()": {
        "notice": "getPaymentContracts getter"
      },
      "isRented(address,uint256)": {
        "notice": "check if a given token is rented or not"
      },
      "lend(address,uint256,address,uint256)": {
        "notice": "lend an NFToken"
      },
      "nextTokenIdx()": {
        "notice": "An incrementing counter to create unique ids for each token"
      },
      "partners(address)": {
        "notice": "A mapping pointing partner's contract address to partner structs"
      },
      "payments(address)": {
        "notice": "A mapping pointing partner's contract address to its total fee"
      },
      "rent(address,uint256,uint256)": {
        "notice": "rent a token only if the token is available"
      },
      "rentals(uint256)": {
        "notice": "A mapping pointing rentIdx to the rental dev rentIdx -> rental"
      },
      "setAdVault(address)": {
        "notice": "adVault setter"
      },
      "setCommission(uint256)": {
        "notice": "Commission setter"
      },
      "setPartners(address,address,uint256)": {
        "notice": "partners setter"
      },
      "setUnitTime(uint256)": {
        "notice": "UnitTime setter"
      },
      "tokenDetails(uint256)": {
        "notice": "A mapping pointing tokenId to TokenDetail structs"
      },
      "tokenIdxes(bytes32)": {
        "notice": "A mapping pointing token hash to tokenId"
      },
      "totalRentCount()": {
        "notice": "An incrementing counter to create unique idx for each rental"
      },
      "unitTime()": {
        "notice": "Minimum rental time"
      },
      "vaults(address)": {
        "notice": "A mapping pointing owner address to its asset contract."
      }
    },
    "version": 1
  },
  "storageLayout": {
    "storage": [
      {
        "astId": 7,
        "contract": "contracts/RentFun/RentFun.sol:RentFun",
        "label": "_owner",
        "offset": 0,
        "slot": "0",
        "type": "t_address"
      },
      {
        "astId": 4692,
        "contract": "contracts/RentFun/RentFun.sol:RentFun",
        "label": "unitTime",
        "offset": 0,
        "slot": "1",
        "type": "t_uint256"
      },
      {
        "astId": 4694,
        "contract": "contracts/RentFun/RentFun.sol:RentFun",
        "label": "commission",
        "offset": 0,
        "slot": "2",
        "type": "t_uint256"
      },
      {
        "astId": 4699,
        "contract": "contracts/RentFun/RentFun.sol:RentFun",
        "label": "adVault",
        "offset": 0,
        "slot": "3",
        "type": "t_address"
      },
      {
        "astId": 4702,
        "contract": "contracts/RentFun/RentFun.sol:RentFun",
        "label": "owners",
        "offset": 0,
        "slot": "4",
        "type": "t_struct(AddressSet)4291_storage"
      },
      {
        "astId": 4707,
        "contract": "contracts/RentFun/RentFun.sol:RentFun",
        "label": "vaults",
        "offset": 0,
        "slot": "6",
        "type": "t_mapping(t_address,t_address)"
      },
      {
        "astId": 4736,
        "contract": "contracts/RentFun/RentFun.sol:RentFun",
        "label": "paymentContracts",
        "offset": 0,
        "slot": "7",
        "type": "t_struct(AddressSet)4291_storage"
      },
      {
        "astId": 4741,
        "contract": "contracts/RentFun/RentFun.sol:RentFun",
        "label": "payments",
        "offset": 0,
        "slot": "9",
        "type": "t_mapping(t_address,t_uint256)"
      },
      {
        "astId": 4745,
        "contract": "contracts/RentFun/RentFun.sol:RentFun",
        "label": "partnerContracts",
        "offset": 0,
        "slot": "10",
        "type": "t_struct(AddressSet)4291_storage"
      },
      {
        "astId": 4751,
        "contract": "contracts/RentFun/RentFun.sol:RentFun",
        "label": "partners",
        "offset": 0,
        "slot": "12",
        "type": "t_mapping(t_address,t_struct(Partner)4732_storage)"
      },
      {
        "astId": 4755,
        "contract": "contracts/RentFun/RentFun.sol:RentFun",
        "label": "nextTokenIdx",
        "offset": 0,
        "slot": "13",
        "type": "t_uint256"
      },
      {
        "astId": 4761,
        "contract": "contracts/RentFun/RentFun.sol:RentFun",
        "label": "tokenDetails",
        "offset": 0,
        "slot": "14",
        "type": "t_mapping(t_uint256,t_struct(TokenDetail)4727_storage)"
      },
      {
        "astId": 4766,
        "contract": "contracts/RentFun/RentFun.sol:RentFun",
        "label": "tokenIdxes",
        "offset": 0,
        "slot": "15",
        "type": "t_mapping(t_bytes32,t_uint256)"
      },
      {
        "astId": 4770,
        "contract": "contracts/RentFun/RentFun.sol:RentFun",
        "label": "totalRentCount",
        "offset": 0,
        "slot": "16",
        "type": "t_uint256"
      },
      {
        "astId": 4776,
        "contract": "contracts/RentFun/RentFun.sol:RentFun",
        "label": "rentals",
        "offset": 0,
        "slot": "17",
        "type": "t_mapping(t_uint256,t_struct(Rental)5729_storage)"
      },
      {
        "astId": 4784,
        "contract": "contracts/RentFun/RentFun.sol:RentFun",
        "label": "personalRentals",
        "offset": 0,
        "slot": "18",
        "type": "t_mapping(t_address,t_mapping(t_address,t_struct(UintSet)4448_storage))"
      }
    ],
    "types": {
      "t_address": {
        "encoding": "inplace",
        "label": "address",
        "numberOfBytes": "20"
      },
      "t_array(t_bytes32)dyn_storage": {
        "base": "t_bytes32",
        "encoding": "dynamic_array",
        "label": "bytes32[]",
        "numberOfBytes": "32"
      },
      "t_bytes32": {
        "encoding": "inplace",
        "label": "bytes32",
        "numberOfBytes": "32"
      },
      "t_enum(RentStatus)4585": {
        "encoding": "inplace",
        "label": "enum Enum.RentStatus",
        "numberOfBytes": "1"
      },
      "t_mapping(t_address,t_address)": {
        "encoding": "mapping",
        "key": "t_address",
        "label": "mapping(address => address)",
        "numberOfBytes": "32",
        "value": "t_address"
      },
      "t_mapping(t_address,t_mapping(t_address,t_struct(UintSet)4448_storage))": {
        "encoding": "mapping",
        "key": "t_address",
        "label": "mapping(address => mapping(address => struct EnumerableSet.UintSet))",
        "numberOfBytes": "32",
        "value": "t_mapping(t_address,t_struct(UintSet)4448_storage)"
      },
      "t_mapping(t_address,t_struct(Partner)4732_storage)": {
        "encoding": "mapping",
        "key": "t_address",
        "label": "mapping(address => struct RentFun.Partner)",
        "numberOfBytes": "32",
        "value": "t_struct(Partner)4732_storage"
      },
      "t_mapping(t_address,t_struct(UintSet)4448_storage)": {
        "encoding": "mapping",
        "key": "t_address",
        "label": "mapping(address => struct EnumerableSet.UintSet)",
        "numberOfBytes": "32",
        "value": "t_struct(UintSet)4448_storage"
      },
      "t_mapping(t_address,t_uint256)": {
        "encoding": "mapping",
        "key": "t_address",
        "label": "mapping(address => uint256)",
        "numberOfBytes": "32",
        "value": "t_uint256"
      },
      "t_mapping(t_bytes32,t_uint256)": {
        "encoding": "mapping",
        "key": "t_bytes32",
        "label": "mapping(bytes32 => uint256)",
        "numberOfBytes": "32",
        "value": "t_uint256"
      },
      "t_mapping(t_uint256,t_struct(Rental)5729_storage)": {
        "encoding": "mapping",
        "key": "t_uint256",
        "label": "mapping(uint256 => struct IRentFun.Rental)",
        "numberOfBytes": "32",
        "value": "t_struct(Rental)5729_storage"
      },
      "t_mapping(t_uint256,t_struct(TokenDetail)4727_storage)": {
        "encoding": "mapping",
        "key": "t_uint256",
        "label": "mapping(uint256 => struct RentFun.TokenDetail)",
        "numberOfBytes": "32",
        "value": "t_struct(TokenDetail)4727_storage"
      },
      "t_struct(AddressSet)4291_storage": {
        "encoding": "inplace",
        "label": "struct EnumerableSet.AddressSet",
        "members": [
          {
            "astId": 4290,
            "contract": "contracts/RentFun/RentFun.sol:RentFun",
            "label": "_inner",
            "offset": 0,
            "slot": "0",
            "type": "t_struct(Set)3976_storage"
          }
        ],
        "numberOfBytes": "64"
      },
      "t_struct(Partner)4732_storage": {
        "encoding": "inplace",
        "label": "struct RentFun.Partner",
        "members": [
          {
            "astId": 4729,
            "contract": "contracts/RentFun/RentFun.sol:RentFun",
            "label": "feeReceiver",
            "offset": 0,
            "slot": "0",
            "type": "t_address"
          },
          {
            "astId": 4731,
            "contract": "contracts/RentFun/RentFun.sol:RentFun",
            "label": "commission",
            "offset": 0,
            "slot": "1",
            "type": "t_uint256"
          }
        ],
        "numberOfBytes": "64"
      },
      "t_struct(Rental)5729_storage": {
        "encoding": "inplace",
        "label": "struct IRentFun.Rental",
        "members": [
          {
            "astId": 5720,
            "contract": "contracts/RentFun/RentFun.sol:RentFun",
            "label": "renter",
            "offset": 0,
            "slot": "0",
            "type": "t_address"
          },
          {
            "astId": 5722,
            "contract": "contracts/RentFun/RentFun.sol:RentFun",
            "label": "contract_",
            "offset": 0,
            "slot": "1",
            "type": "t_address"
          },
          {
            "astId": 5724,
            "contract": "contracts/RentFun/RentFun.sol:RentFun",
            "label": "tokenId",
            "offset": 0,
            "slot": "2",
            "type": "t_uint256"
          },
          {
            "astId": 5726,
            "contract": "contracts/RentFun/RentFun.sol:RentFun",
            "label": "vault",
            "offset": 0,
            "slot": "3",
            "type": "t_address"
          },
          {
            "astId": 5728,
            "contract": "contracts/RentFun/RentFun.sol:RentFun",
            "label": "endTime",
            "offset": 0,
            "slot": "4",
            "type": "t_uint256"
          }
        ],
        "numberOfBytes": "160"
      },
      "t_struct(Set)3976_storage": {
        "encoding": "inplace",
        "label": "struct EnumerableSet.Set",
        "members": [
          {
            "astId": 3971,
            "contract": "contracts/RentFun/RentFun.sol:RentFun",
            "label": "_values",
            "offset": 0,
            "slot": "0",
            "type": "t_array(t_bytes32)dyn_storage"
          },
          {
            "astId": 3975,
            "contract": "contracts/RentFun/RentFun.sol:RentFun",
            "label": "_indexes",
            "offset": 0,
            "slot": "1",
            "type": "t_mapping(t_bytes32,t_uint256)"
          }
        ],
        "numberOfBytes": "64"
      },
      "t_struct(TokenDetail)4727_storage": {
        "encoding": "inplace",
        "label": "struct RentFun.TokenDetail",
        "members": [
          {
            "astId": 4709,
            "contract": "contracts/RentFun/RentFun.sol:RentFun",
            "label": "contract_",
            "offset": 0,
            "slot": "0",
            "type": "t_address"
          },
          {
            "astId": 4711,
            "contract": "contracts/RentFun/RentFun.sol:RentFun",
            "label": "tokenId",
            "offset": 0,
            "slot": "1",
            "type": "t_uint256"
          },
          {
            "astId": 4713,
            "contract": "contracts/RentFun/RentFun.sol:RentFun",
            "label": "depositor",
            "offset": 0,
            "slot": "2",
            "type": "t_address"
          },
          {
            "astId": 4715,
            "contract": "contracts/RentFun/RentFun.sol:RentFun",
            "label": "vault",
            "offset": 0,
            "slot": "3",
            "type": "t_address"
          },
          {
            "astId": 4717,
            "contract": "contracts/RentFun/RentFun.sol:RentFun",
            "label": "payment",
            "offset": 0,
            "slot": "4",
            "type": "t_address"
          },
          {
            "astId": 4719,
            "contract": "contracts/RentFun/RentFun.sol:RentFun",
            "label": "unitFee",
            "offset": 0,
            "slot": "5",
            "type": "t_uint256"
          },
          {
            "astId": 4721,
            "contract": "contracts/RentFun/RentFun.sol:RentFun",
            "label": "lastRentIdx",
            "offset": 0,
            "slot": "6",
            "type": "t_uint256"
          },
          {
            "astId": 4723,
            "contract": "contracts/RentFun/RentFun.sol:RentFun",
            "label": "endTime",
            "offset": 0,
            "slot": "7",
            "type": "t_uint256"
          },
          {
            "astId": 4726,
            "contract": "contracts/RentFun/RentFun.sol:RentFun",
            "label": "rentStatus",
            "offset": 0,
            "slot": "8",
            "type": "t_enum(RentStatus)4585"
          }
        ],
        "numberOfBytes": "288"
      },
      "t_struct(UintSet)4448_storage": {
        "encoding": "inplace",
        "label": "struct EnumerableSet.UintSet",
        "members": [
          {
            "astId": 4447,
            "contract": "contracts/RentFun/RentFun.sol:RentFun",
            "label": "_inner",
            "offset": 0,
            "slot": "0",
            "type": "t_struct(Set)3976_storage"
          }
        ],
        "numberOfBytes": "64"
      },
      "t_uint256": {
        "encoding": "inplace",
        "label": "uint256",
        "numberOfBytes": "32"
      }
    }
  }
}