{
  "address": "0x99831ABfBdEeA9128D3e80ec98b554A127Da7c3A",
  "abi": [
    {
      "inputs": [],
      "stateMutability": "nonpayable",
      "type": "constructor"
    },
    {
      "anonymous": false,
      "inputs": [
        {
          "indexed": true,
          "internalType": "address",
          "name": "owner",
          "type": "address"
        },
        {
          "indexed": true,
          "internalType": "address",
          "name": "approved",
          "type": "address"
        },
        {
          "indexed": true,
          "internalType": "uint256",
          "name": "tokenId",
          "type": "uint256"
        }
      ],
      "name": "Approval",
      "type": "event"
    },
    {
      "anonymous": false,
      "inputs": [
        {
          "indexed": true,
          "internalType": "address",
          "name": "owner",
          "type": "address"
        },
        {
          "indexed": true,
          "internalType": "address",
          "name": "operator",
          "type": "address"
        },
        {
          "indexed": false,
          "internalType": "bool",
          "name": "approved",
          "type": "bool"
        }
      ],
      "name": "ApprovalForAll",
      "type": "event"
    },
    {
      "anonymous": false,
      "inputs": [
        {
          "indexed": false,
          "internalType": "uint256",
          "name": "tokenId",
          "type": "uint256"
        }
      ],
      "name": "NewTurtleGenerated",
      "type": "event"
    },
    {
      "anonymous": false,
      "inputs": [
        {
          "indexed": true,
          "internalType": "address",
          "name": "from",
          "type": "address"
        },
        {
          "indexed": true,
          "internalType": "address",
          "name": "to",
          "type": "address"
        },
        {
          "indexed": true,
          "internalType": "uint256",
          "name": "tokenId",
          "type": "uint256"
        }
      ],
      "name": "Transfer",
      "type": "event"
    },
    {
      "anonymous": false,
      "inputs": [
        {
          "indexed": false,
          "internalType": "uint256",
          "name": "tokenId",
          "type": "uint256"
        }
      ],
      "name": "TurtleUpgraded",
      "type": "event"
    },
    {
      "inputs": [
        {
          "internalType": "address",
          "name": "to",
          "type": "address"
        },
        {
          "internalType": "uint256",
          "name": "tokenId",
          "type": "uint256"
        }
      ],
      "name": "approve",
      "outputs": [],
      "stateMutability": "nonpayable",
      "type": "function"
    },
    {
      "inputs": [
        {
          "internalType": "address",
          "name": "owner",
          "type": "address"
        }
      ],
      "name": "balanceOf",
      "outputs": [
        {
          "internalType": "uint256",
          "name": "",
          "type": "uint256"
        }
      ],
      "stateMutability": "view",
      "type": "function"
    },
    {
      "inputs": [],
      "name": "contractOwner",
      "outputs": [
        {
          "internalType": "address payable",
          "name": "",
          "type": "address"
        }
      ],
      "stateMutability": "view",
      "type": "function"
    },
    {
      "inputs": [
        {
          "internalType": "uint256",
          "name": "_score",
          "type": "uint256"
        },
        {
          "internalType": "string",
          "name": "_tokenURI",
          "type": "string"
        }
      ],
      "name": "generateTurtle",
      "outputs": [],
      "stateMutability": "nonpayable",
      "type": "function"
    },
    {
      "inputs": [],
      "name": "getAllNFTs",
      "outputs": [
        {
          "components": [
            {
              "internalType": "uint256",
              "name": "tokenId",
              "type": "uint256"
            },
            {
              "internalType": "string",
              "name": "tokenURI",
              "type": "string"
            }
          ],
          "internalType": "struct Turtis.NFTItem[]",
          "name": "",
          "type": "tuple[]"
        }
      ],
      "stateMutability": "view",
      "type": "function"
    },
    {
      "inputs": [
        {
          "internalType": "uint256",
          "name": "tokenId",
          "type": "uint256"
        }
      ],
      "name": "getApproved",
      "outputs": [
        {
          "internalType": "address",
          "name": "",
          "type": "address"
        }
      ],
      "stateMutability": "view",
      "type": "function"
    },
    {
      "inputs": [
        {
          "internalType": "address",
          "name": "_user",
          "type": "address"
        }
      ],
      "name": "getBalanceOfUser",
      "outputs": [
        {
          "internalType": "uint256",
          "name": "",
          "type": "uint256"
        }
      ],
      "stateMutability": "view",
      "type": "function"
    },
    {
      "inputs": [
        {
          "internalType": "address",
          "name": "_user",
          "type": "address"
        }
      ],
      "name": "getUserOwnedNFTs",
      "outputs": [
        {
          "components": [
            {
              "internalType": "uint256",
              "name": "tokenId",
              "type": "uint256"
            },
            {
              "internalType": "string",
              "name": "tokenURI",
              "type": "string"
            }
          ],
          "internalType": "struct Turtis.NFTItem[]",
          "name": "",
          "type": "tuple[]"
        }
      ],
      "stateMutability": "view",
      "type": "function"
    },
    {
      "inputs": [],
      "name": "getUsers",
      "outputs": [
        {
          "internalType": "address[]",
          "name": "",
          "type": "address[]"
        }
      ],
      "stateMutability": "view",
      "type": "function"
    },
    {
      "inputs": [
        {
          "internalType": "address",
          "name": "owner",
          "type": "address"
        },
        {
          "internalType": "address",
          "name": "operator",
          "type": "address"
        }
      ],
      "name": "isApprovedForAll",
      "outputs": [
        {
          "internalType": "bool",
          "name": "",
          "type": "bool"
        }
      ],
      "stateMutability": "view",
      "type": "function"
    },
    {
      "inputs": [],
      "name": "name",
      "outputs": [
        {
          "internalType": "string",
          "name": "",
          "type": "string"
        }
      ],
      "stateMutability": "view",
      "type": "function"
    },
    {
      "inputs": [
        {
          "internalType": "uint256",
          "name": "tokenId",
          "type": "uint256"
        }
      ],
      "name": "ownerOf",
      "outputs": [
        {
          "internalType": "address",
          "name": "",
          "type": "address"
        }
      ],
      "stateMutability": "view",
      "type": "function"
    },
    {
      "inputs": [
        {
          "internalType": "address",
          "name": "from",
          "type": "address"
        },
        {
          "internalType": "address",
          "name": "to",
          "type": "address"
        },
        {
          "internalType": "uint256",
          "name": "tokenId",
          "type": "uint256"
        }
      ],
      "name": "safeTransferFrom",
      "outputs": [],
      "stateMutability": "nonpayable",
      "type": "function"
    },
    {
      "inputs": [
        {
          "internalType": "address",
          "name": "from",
          "type": "address"
        },
        {
          "internalType": "address",
          "name": "to",
          "type": "address"
        },
        {
          "internalType": "uint256",
          "name": "tokenId",
          "type": "uint256"
        },
        {
          "internalType": "bytes",
          "name": "data",
          "type": "bytes"
        }
      ],
      "name": "safeTransferFrom",
      "outputs": [],
      "stateMutability": "nonpayable",
      "type": "function"
    },
    {
      "inputs": [
        {
          "internalType": "address",
          "name": "operator",
          "type": "address"
        },
        {
          "internalType": "bool",
          "name": "approved",
          "type": "bool"
        }
      ],
      "name": "setApprovalForAll",
      "outputs": [],
      "stateMutability": "nonpayable",
      "type": "function"
    },
    {
      "inputs": [
        {
          "internalType": "bytes4",
          "name": "interfaceId",
          "type": "bytes4"
        }
      ],
      "name": "supportsInterface",
      "outputs": [
        {
          "internalType": "bool",
          "name": "",
          "type": "bool"
        }
      ],
      "stateMutability": "view",
      "type": "function"
    },
    {
      "inputs": [],
      "name": "symbol",
      "outputs": [
        {
          "internalType": "string",
          "name": "",
          "type": "string"
        }
      ],
      "stateMutability": "view",
      "type": "function"
    },
    {
      "inputs": [
        {
          "internalType": "uint256",
          "name": "tokenId",
          "type": "uint256"
        }
      ],
      "name": "tokenURI",
      "outputs": [
        {
          "internalType": "string",
          "name": "",
          "type": "string"
        }
      ],
      "stateMutability": "view",
      "type": "function"
    },
    {
      "inputs": [],
      "name": "totalSupply",
      "outputs": [
        {
          "internalType": "uint256",
          "name": "",
          "type": "uint256"
        }
      ],
      "stateMutability": "view",
      "type": "function"
    },
    {
      "inputs": [
        {
          "internalType": "address",
          "name": "from",
          "type": "address"
        },
        {
          "internalType": "address",
          "name": "to",
          "type": "address"
        },
        {
          "internalType": "uint256",
          "name": "tokenId",
          "type": "uint256"
        }
      ],
      "name": "transferFrom",
      "outputs": [],
      "stateMutability": "nonpayable",
      "type": "function"
    },
    {
      "inputs": [
        {
          "internalType": "uint256",
          "name": "_tokenId",
          "type": "uint256"
        },
        {
          "internalType": "string",
          "name": "_tokenURI",
          "type": "string"
        }
      ],
      "name": "updateTokenURI",
      "outputs": [],
      "stateMutability": "nonpayable",
      "type": "function"
    },
    {
      "inputs": [
        {
          "internalType": "uint256",
          "name": "_score",
          "type": "uint256"
        },
        {
          "internalType": "string",
          "name": "_tokenURI",
          "type": "string"
        },
        {
          "internalType": "uint256",
          "name": "_tokenId",
          "type": "uint256"
        }
      ],
      "name": "upgradeTurtle",
      "outputs": [],
      "stateMutability": "nonpayable",
      "type": "function"
    },
    {
      "inputs": [
        {
          "internalType": "address",
          "name": "",
          "type": "address"
        }
      ],
      "name": "userAddressToHighScore",
      "outputs": [
        {
          "internalType": "uint256",
          "name": "",
          "type": "uint256"
        }
      ],
      "stateMutability": "view",
      "type": "function"
    }
  ],
  "transactionHash": "0x93a26501e374f5a1e6e7f7db3b6b9524b3e2a9996735c9e5445d256c10f0882f",
  "args": [],
  "numDeployments": 2,
  "solcInputHash": "9f179a94886cfea96f767b4457031c43",
  "bytecode": "0x60806040523480156200001157600080fd5b506040518060400160405280600881526020017f476f547572746c650000000000000000000000000000000000000000000000008152506040518060400160405280600381526020017f47544c000000000000000000000000000000000000000000000000000000000081525081600090805190602001906200009692919062000101565b508060019080519060200190620000af92919062000101565b505050600160078190555033600960006101000a81548173ffffffffffffffffffffffffffffffffffffffff021916908373ffffffffffffffffffffffffffffffffffffffff16021790555062000216565b8280546200010f90620001b1565b90600052602060002090601f0160209004810192826200013357600085556200017f565b82601f106200014e57805160ff19168380011785556200017f565b828001600101855582156200017f579182015b828111156200017e57825182559160200191906001019062000161565b5b5090506200018e919062000192565b5090565b5b80821115620001ad57600081600090555060010162000193565b5090565b60006002820490506001821680620001ca57607f821691505b60208210811415620001e157620001e0620001e7565b5b50919050565b7f4e487b7100000000000000000000000000000000000000000000000000000000600052602260045260246000fd5b613b5980620002266000396000f3fe608060405234801561001057600080fd5b506004361061014b5760003560e01c806345909a6f116100c3578063bffcf3901161007c578063bffcf390146103ac578063c87b56dd146103c8578063ce606ee0146103f8578063e0391b0914610416578063e503cafa14610434578063e985e9c5146104645761014b565b806345909a6f146102c65780636352211e146102f657806370a082311461032657806395d89b4114610356578063a22cb46514610374578063b88d4fde146103905761014b565b8063081812fc11610115578063081812fc14610208578063095ea7b31461023857806318160ddd1461025457806318e97fd11461027257806323b872dd1461028e57806342842e0e146102aa5761014b565b80620e12a614610150578062ce8e3e1461016c57806301ffc9a71461018a5780630335b5af146101ba57806306fdde03146101ea575b600080fd5b61016a60048036038101906101659190612af3565b610494565b005b6101746105c7565b604051610181919061307f565b60405180910390f35b6101a4600480360381019061019f9190612a24565b610655565b6040516101b191906130c3565b60405180910390f35b6101d460048036038101906101cf919061287d565b610737565b6040516101e191906130a1565b60405180910390f35b6101f2610943565b6040516101ff91906130de565b60405180910390f35b610222600480360381019061021d9190612a76565b6109d5565b60405161022f9190612ffd565b60405180910390f35b610252600480360381019061024d91906129e8565b610a1b565b005b61025c610b33565b60405161026991906132e0565b60405180910390f35b61028c60048036038101906102879190612a9f565b610b44565b005b6102a860048036038101906102a391906128e2565b610c34565b005b6102c460048036038101906102bf91906128e2565b610c94565b005b6102e060048036038101906102db919061287d565b610cb4565b6040516102ed91906132e0565b60405180910390f35b610310600480360381019061030b9190612a76565b610cc6565b60405161031d9190612ffd565b60405180910390f35b610340600480360381019061033b919061287d565b610d4d565b60405161034d91906132e0565b60405180910390f35b61035e610e05565b60405161036b91906130de565b60405180910390f35b61038e600480360381019061038991906129ac565b610e97565b005b6103aa60048036038101906103a59190612931565b610ead565b005b6103c660048036038101906103c19190612a9f565b610f0f565b005b6103e260048036038101906103dd9190612a76565b611062565b6040516103ef91906130de565b60405180910390f35b610400611175565b60405161040d9190613018565b60405180910390f35b61041e61119b565b60405161042b91906130a1565b60405180910390f35b61044e6004803603810190610449919061287d565b611352565b60405161045b91906132e0565b60405180910390f35b61047e600480360381019061047991906128a6565b61136a565b60405161048b91906130c3565b60405180910390f35b61049c6113fe565b600b60003373ffffffffffffffffffffffffffffffffffffffff1673ffffffffffffffffffffffffffffffffffffffff16815260200190815260200160002054831161051d576040517f08c379a000000000000000000000000000000000000000000000000000000000815260040161051490613140565b60405180910390fd5b610527833361144e565b6105318183611542565b604051806040016040528082815260200183815250600c600083815260200190815260200160002060008201518160000155602082015181600101908051906020019061057f929190612687565b509050507f56f213350901e1a8f4e71b0ca5462d911c94c478eab593135b8a8ba5e7c1acea816040516105b291906132e0565b60405180910390a16105c26115b6565b505050565b6060600a80548060200260200160405190810160405280929190818152602001828054801561064b57602002820191906000526020600020905b8160009054906101000a900473ffffffffffffffffffffffffffffffffffffffff1673ffffffffffffffffffffffffffffffffffffffff1681526020019060010190808311610601575b5050505050905090565b60007f80ac58cd000000000000000000000000000000000000000000000000000000007bffffffffffffffffffffffffffffffffffffffffffffffffffffffff1916827bffffffffffffffffffffffffffffffffffffffffffffffffffffffff1916148061072057507f5b5e139f000000000000000000000000000000000000000000000000000000007bffffffffffffffffffffffffffffffffffffffffffffffffffffffff1916827bffffffffffffffffffffffffffffffffffffffffffffffffffffffff1916145b80610730575061072f826115c0565b5b9050919050565b6060600061074483610cb4565b67ffffffffffffffff811115610783577f4e487b7100000000000000000000000000000000000000000000000000000000600052604160045260246000fd5b6040519080825280602002602001820160405280156107bc57816020015b6107a961270d565b8152602001906001900390816107a15790505b50905060006107c9610b33565b90506000805b82811015610937578573ffffffffffffffffffffffffffffffffffffffff166107f782610cc6565b73ffffffffffffffffffffffffffffffffffffffff161415610924576000600c6000838152602001908152602001600020905080604051806040016040529081600082015481526020016001820180546108509061359a565b80601f016020809104026020016040519081016040528092919081815260200182805461087c9061359a565b80156108c95780601f1061089e576101008083540402835291602001916108c9565b820191906000526020600020905b8154815290600101906020018083116108ac57829003601f168201915b5050505050815250508584806108de906135fd565b955081518110610917577f4e487b7100000000000000000000000000000000000000000000000000000000600052603260045260246000fd5b6020026020010181905250505b808061092f906135fd565b9150506107cf565b50829350505050919050565b6060600080546109529061359a565b80601f016020809104026020016040519081016040528092919081815260200182805461097e9061359a565b80156109cb5780601f106109a0576101008083540402835291602001916109cb565b820191906000526020600020905b8154815290600101906020018083116109ae57829003601f168201915b5050505050905090565b60006109e08261162a565b6004600083815260200190815260200160002060009054906101000a900473ffffffffffffffffffffffffffffffffffffffff169050919050565b6000610a2682610cc6565b90508073ffffffffffffffffffffffffffffffffffffffff168373ffffffffffffffffffffffffffffffffffffffff161415610a97576040517f08c379a0000000000000000000000000000000000000000000000000000000008152600401610a8e90613260565b60405180910390fd5b8073ffffffffffffffffffffffffffffffffffffffff16610ab6611675565b73ffffffffffffffffffffffffffffffffffffffff161480610ae55750610ae481610adf611675565b61136a565b5b610b24576040517f08c379a0000000000000000000000000000000000000000000000000000000008152600401610b1b90613280565b60405180910390fd5b610b2e838361167d565b505050565b6000610b3f6008611736565b905090565b600960009054906101000a900473ffffffffffffffffffffffffffffffffffffffff1673ffffffffffffffffffffffffffffffffffffffff163373ffffffffffffffffffffffffffffffffffffffff1614610bd4576040517f08c379a0000000000000000000000000000000000000000000000000000000008152600401610bcb906132a0565b60405180910390fd5b610bde8282611542565b604051806040016040528083815260200182815250600c6000848152602001908152602001600020600082015181600001556020820151816001019080519060200190610c2c929190612687565b509050505050565b610c45610c3f611675565b82611744565b610c84576040517f08c379a0000000000000000000000000000000000000000000000000000000008152600401610c7b90613100565b60405180910390fd5b610c8f8383836117d9565b505050565b610caf83838360405180602001604052806000815250610ead565b505050565b6000610cbf82610d4d565b9050919050565b600080610cd283611ad3565b9050600073ffffffffffffffffffffffffffffffffffffffff168173ffffffffffffffffffffffffffffffffffffffff161415610d44576040517f08c379a0000000000000000000000000000000000000000000000000000000008152600401610d3b90613240565b60405180910390fd5b80915050919050565b60008073ffffffffffffffffffffffffffffffffffffffff168273ffffffffffffffffffffffffffffffffffffffff161415610dbe576040517f08c379a0000000000000000000000000000000000000000000000000000000008152600401610db5906131e0565b60405180910390fd5b600360008373ffffffffffffffffffffffffffffffffffffffff1673ffffffffffffffffffffffffffffffffffffffff168152602001908152602001600020549050919050565b606060018054610e149061359a565b80601f0160208091040260200160405190810160405280929190818152602001828054610e409061359a565b8015610e8d5780601f10610e6257610100808354040283529160200191610e8d565b820191906000526020600020905b815481529060010190602001808311610e7057829003601f168201915b5050505050905090565b610ea9610ea2611675565b8383611b10565b5050565b610ebe610eb8611675565b83611744565b610efd576040517f08c379a0000000000000000000000000000000000000000000000000000000008152600401610ef490613100565b60405180910390fd5b610f0984848484611c7d565b50505050565b610f176113fe565b600b60003373ffffffffffffffffffffffffffffffffffffffff1673ffffffffffffffffffffffffffffffffffffffff168152602001908152602001600020548211610f98576040517f08c379a0000000000000000000000000000000000000000000000000000000008152600401610f8f90613140565b60405180910390fd5b610fa2823361144e565b6000610fac610b33565b9050610fb83382611cd9565b610fc26008611cf7565b610fcc8183611542565b604051806040016040528082815260200183815250600c600083815260200190815260200160002060008201518160000155602082015181600101908051906020019061101a929190612687565b509050507f375888a712a23aa4f960c32984e16baf008be32cc52f7b9c12212feee89eb6088160405161104d91906132e0565b60405180910390a15061105e6115b6565b5050565b606061106d8261162a565b600060066000848152602001908152602001600020805461108d9061359a565b80601f01602080910402602001604051908101604052809291908181526020018280546110b99061359a565b80156111065780601f106110db57610100808354040283529160200191611106565b820191906000526020600020905b8154815290600101906020018083116110e957829003601f168201915b505050505090506000611117611d0d565b905060008151141561112d578192505050611170565b60008251111561116257808260405160200161114a929190612fd9565b60405160208183030381529060405292505050611170565b61116b84611d24565b925050505b919050565b600960009054906101000a900473ffffffffffffffffffffffffffffffffffffffff1681565b606060006111a7610b33565b905060008167ffffffffffffffff8111156111eb577f4e487b7100000000000000000000000000000000000000000000000000000000600052604160045260246000fd5b60405190808252806020026020018201604052801561122457816020015b61121161270d565b8152602001906001900390816112095790505b50905060005b82811015611349576000600c60008381526020019081526020016000209050806040518060400160405290816000820154815260200160018201805461126f9061359a565b80601f016020809104026020016040519081016040528092919081815260200182805461129b9061359a565b80156112e85780601f106112bd576101008083540402835291602001916112e8565b820191906000526020600020905b8154815290600101906020018083116112cb57829003601f168201915b50505050508152505083838151811061132a577f4e487b7100000000000000000000000000000000000000000000000000000000600052603260045260246000fd5b6020026020010181905250508080611341906135fd565b91505061122a565b50809250505090565b600b6020528060005260406000206000915090505481565b6000600560008473ffffffffffffffffffffffffffffffffffffffff1673ffffffffffffffffffffffffffffffffffffffff16815260200190815260200160002060008373ffffffffffffffffffffffffffffffffffffffff1673ffffffffffffffffffffffffffffffffffffffff16815260200190815260200160002060009054906101000a900460ff16905092915050565b60026007541415611444576040517f08c379a000000000000000000000000000000000000000000000000000000000815260040161143b906132c0565b60405180910390fd5b6002600781905550565b6000600b60008373ffffffffffffffffffffffffffffffffffffffff1673ffffffffffffffffffffffffffffffffffffffff1681526020019081526020016000205414156114fa57600a819080600181540180825580915050600190039060005260206000200160009091909190916101000a81548173ffffffffffffffffffffffffffffffffffffffff021916908373ffffffffffffffffffffffffffffffffffffffff1602179055505b81600b60008373ffffffffffffffffffffffffffffffffffffffff1673ffffffffffffffffffffffffffffffffffffffff168152602001908152602001600020819055505050565b61154b82611d8c565b61158a576040517f08c379a000000000000000000000000000000000000000000000000000000000815260040161158190613200565b60405180910390fd5b806006600084815260200190815260200160002090805190602001906115b1929190612687565b505050565b6001600781905550565b60007f01ffc9a7000000000000000000000000000000000000000000000000000000007bffffffffffffffffffffffffffffffffffffffffffffffffffffffff1916827bffffffffffffffffffffffffffffffffffffffffffffffffffffffff1916149050919050565b61163381611d8c565b611672576040517f08c379a000000000000000000000000000000000000000000000000000000000815260040161166990613240565b60405180910390fd5b50565b600033905090565b816004600083815260200190815260200160002060006101000a81548173ffffffffffffffffffffffffffffffffffffffff021916908373ffffffffffffffffffffffffffffffffffffffff160217905550808273ffffffffffffffffffffffffffffffffffffffff166116f083610cc6565b73ffffffffffffffffffffffffffffffffffffffff167f8c5be1e5ebec7d5bd14f71427d1e84f3dd0314c0f7b2291e5b200ac8c7c3b92560405160405180910390a45050565b600081600001549050919050565b60008061175083610cc6565b90508073ffffffffffffffffffffffffffffffffffffffff168473ffffffffffffffffffffffffffffffffffffffff1614806117925750611791818561136a565b5b806117d057508373ffffffffffffffffffffffffffffffffffffffff166117b8846109d5565b73ffffffffffffffffffffffffffffffffffffffff16145b91505092915050565b8273ffffffffffffffffffffffffffffffffffffffff166117f982610cc6565b73ffffffffffffffffffffffffffffffffffffffff161461184f576040517f08c379a000000000000000000000000000000000000000000000000000000000815260040161184690613160565b60405180910390fd5b600073ffffffffffffffffffffffffffffffffffffffff168273ffffffffffffffffffffffffffffffffffffffff1614156118bf576040517f08c379a00000000000000000000000000000000000000000000000000000000081526004016118b6906131a0565b60405180910390fd5b6118cc8383836001611dcd565b8273ffffffffffffffffffffffffffffffffffffffff166118ec82610cc6565b73ffffffffffffffffffffffffffffffffffffffff1614611942576040517f08c379a000000000000000000000000000000000000000000000000000000000815260040161193990613160565b60405180910390fd5b6004600082815260200190815260200160002060006101000a81549073ffffffffffffffffffffffffffffffffffffffff02191690556001600360008573ffffffffffffffffffffffffffffffffffffffff1673ffffffffffffffffffffffffffffffffffffffff168152602001908152602001600020600082825403925050819055506001600360008473ffffffffffffffffffffffffffffffffffffffff1673ffffffffffffffffffffffffffffffffffffffff16815260200190815260200160002060008282540192505081905550816002600083815260200190815260200160002060006101000a81548173ffffffffffffffffffffffffffffffffffffffff021916908373ffffffffffffffffffffffffffffffffffffffff160217905550808273ffffffffffffffffffffffffffffffffffffffff168473ffffffffffffffffffffffffffffffffffffffff167fddf252ad1be2c89b69c2b068fc378daa952ba7f163c4a11628f55a4df523b3ef60405160405180910390a4611ace8383836001611ef3565b505050565b60006002600083815260200190815260200160002060009054906101000a900473ffffffffffffffffffffffffffffffffffffffff169050919050565b8173ffffffffffffffffffffffffffffffffffffffff168373ffffffffffffffffffffffffffffffffffffffff161415611b7f576040517f08c379a0000000000000000000000000000000000000000000000000000000008152600401611b76906131c0565b60405180910390fd5b80600560008573ffffffffffffffffffffffffffffffffffffffff1673ffffffffffffffffffffffffffffffffffffffff16815260200190815260200160002060008473ffffffffffffffffffffffffffffffffffffffff1673ffffffffffffffffffffffffffffffffffffffff16815260200190815260200160002060006101000a81548160ff0219169083151502179055508173ffffffffffffffffffffffffffffffffffffffff168373ffffffffffffffffffffffffffffffffffffffff167f17307eab39ab6107e8899845ad3d59bd9653f200f220920489ca2b5937696c3183604051611c7091906130c3565b60405180910390a3505050565b611c888484846117d9565b611c9484848484611ef9565b611cd3576040517f08c379a0000000000000000000000000000000000000000000000000000000008152600401611cca90613120565b60405180910390fd5b50505050565b611cf3828260405180602001604052806000815250612090565b5050565b6001816000016000828254019250508190555050565b606060405180602001604052806000815250905090565b6060611d2f8261162a565b6000611d39611d0d565b90506000815111611d595760405180602001604052806000815250611d84565b80611d63846120eb565b604051602001611d74929190612fd9565b6040516020818303038152906040525b915050919050565b60008073ffffffffffffffffffffffffffffffffffffffff16611dae83611ad3565b73ffffffffffffffffffffffffffffffffffffffff1614159050919050565b6001811115611eed57600073ffffffffffffffffffffffffffffffffffffffff168473ffffffffffffffffffffffffffffffffffffffff1614611e615780600360008673ffffffffffffffffffffffffffffffffffffffff1673ffffffffffffffffffffffffffffffffffffffff1681526020019081526020016000206000828254611e59919061349e565b925050819055505b600073ffffffffffffffffffffffffffffffffffffffff168373ffffffffffffffffffffffffffffffffffffffff1614611eec5780600360008573ffffffffffffffffffffffffffffffffffffffff1673ffffffffffffffffffffffffffffffffffffffff1681526020019081526020016000206000828254611ee49190613448565b925050819055505b5b50505050565b50505050565b6000611f1a8473ffffffffffffffffffffffffffffffffffffffff1661220f565b15612083578373ffffffffffffffffffffffffffffffffffffffff1663150b7a02611f43611675565b8786866040518563ffffffff1660e01b8152600401611f659493929190613033565b602060405180830381600087803b158015611f7f57600080fd5b505af1925050508015611fb057506040513d601f19601f82011682018060405250810190611fad9190612a4d565b60015b612033573d8060008114611fe0576040519150601f19603f3d011682016040523d82523d6000602084013e611fe5565b606091505b5060008151141561202b576040517f08c379a000000000000000000000000000000000000000000000000000000000815260040161202290613120565b60405180910390fd5b805181602001fd5b63150b7a0260e01b7bffffffffffffffffffffffffffffffffffffffffffffffffffffffff1916817bffffffffffffffffffffffffffffffffffffffffffffffffffffffff191614915050612088565b600190505b949350505050565b61209a8383612232565b6120a76000848484611ef9565b6120e6576040517f08c379a00000000000000000000000000000000000000000000000000000000081526004016120dd90613120565b60405180910390fd5b505050565b6060600060016120fa84612450565b01905060008167ffffffffffffffff81111561213f577f4e487b7100000000000000000000000000000000000000000000000000000000600052604160045260246000fd5b6040519080825280601f01601f1916602001820160405280156121715781602001600182028036833780820191505090505b509050600082602001820190505b600115612204578080600190039150507f3031323334353637383961626364656600000000000000000000000000000000600a86061a8153600a85816121ee577f4e487b7100000000000000000000000000000000000000000000000000000000600052601260045260246000fd5b04945060008514156121ff57612204565b61217f565b819350505050919050565b6000808273ffffffffffffffffffffffffffffffffffffffff163b119050919050565b600073ffffffffffffffffffffffffffffffffffffffff168273ffffffffffffffffffffffffffffffffffffffff1614156122a2576040517f08c379a000000000000000000000000000000000000000000000000000000000815260040161229990613220565b60405180910390fd5b6122ab81611d8c565b156122eb576040517f08c379a00000000000000000000000000000000000000000000000000000000081526004016122e290613180565b60405180910390fd5b6122f9600083836001611dcd565b61230281611d8c565b15612342576040517f08c379a000000000000000000000000000000000000000000000000000000000815260040161233990613180565b60405180910390fd5b6001600360008473ffffffffffffffffffffffffffffffffffffffff1673ffffffffffffffffffffffffffffffffffffffff16815260200190815260200160002060008282540192505081905550816002600083815260200190815260200160002060006101000a81548173ffffffffffffffffffffffffffffffffffffffff021916908373ffffffffffffffffffffffffffffffffffffffff160217905550808273ffffffffffffffffffffffffffffffffffffffff16600073ffffffffffffffffffffffffffffffffffffffff167fddf252ad1be2c89b69c2b068fc378daa952ba7f163c4a11628f55a4df523b3ef60405160405180910390a461244c600083836001611ef3565b5050565b600080600090507a184f03e93ff9f4daa797ed6e38ed64bf6a1f01000000000000000083106124d4577a184f03e93ff9f4daa797ed6e38ed64bf6a1f01000000000000000083816124ca577f4e487b7100000000000000000000000000000000000000000000000000000000600052601260045260246000fd5b0492506040810190505b6d04ee2d6d415b85acef81000000008310612537576d04ee2d6d415b85acef8100000000838161252d577f4e487b7100000000000000000000000000000000000000000000000000000000600052601260045260246000fd5b0492506020810190505b662386f26fc10000831061258c57662386f26fc100008381612582577f4e487b7100000000000000000000000000000000000000000000000000000000600052601260045260246000fd5b0492506010810190505b6305f5e10083106125db576305f5e10083816125d1577f4e487b7100000000000000000000000000000000000000000000000000000000600052601260045260246000fd5b0492506008810190505b612710831061262657612710838161261c577f4e487b7100000000000000000000000000000000000000000000000000000000600052601260045260246000fd5b0492506004810190505b6064831061266f5760648381612665577f4e487b7100000000000000000000000000000000000000000000000000000000600052601260045260246000fd5b0492506002810190505b600a831061267e576001810190505b80915050919050565b8280546126939061359a565b90600052602060002090601f0160209004810192826126b557600085556126fc565b82601f106126ce57805160ff19168380011785556126fc565b828001600101855582156126fc579182015b828111156126fb5782518255916020019190600101906126e0565b5b5090506127099190612727565b5090565b604051806040016040528060008152602001606081525090565b5b80821115612740576000816000905550600101612728565b5090565b600061275761275284613320565b6132fb565b90508281526020810184848401111561276f57600080fd5b61277a848285613558565b509392505050565b600061279561279084613351565b6132fb565b9050828152602081018484840111156127ad57600080fd5b6127b8848285613558565b509392505050565b6000813590506127cf81613ac7565b92915050565b6000813590506127e481613ade565b92915050565b6000813590506127f981613af5565b92915050565b60008151905061280e81613af5565b92915050565b600082601f83011261282557600080fd5b8135612835848260208601612744565b91505092915050565b600082601f83011261284f57600080fd5b813561285f848260208601612782565b91505092915050565b60008135905061287781613b0c565b92915050565b60006020828403121561288f57600080fd5b600061289d848285016127c0565b91505092915050565b600080604083850312156128b957600080fd5b60006128c7858286016127c0565b92505060206128d8858286016127c0565b9150509250929050565b6000806000606084860312156128f757600080fd5b6000612905868287016127c0565b9350506020612916868287016127c0565b925050604061292786828701612868565b9150509250925092565b6000806000806080858703121561294757600080fd5b6000612955878288016127c0565b9450506020612966878288016127c0565b935050604061297787828801612868565b925050606085013567ffffffffffffffff81111561299457600080fd5b6129a087828801612814565b91505092959194509250565b600080604083850312156129bf57600080fd5b60006129cd858286016127c0565b92505060206129de858286016127d5565b9150509250929050565b600080604083850312156129fb57600080fd5b6000612a09858286016127c0565b9250506020612a1a85828601612868565b9150509250929050565b600060208284031215612a3657600080fd5b6000612a44848285016127ea565b91505092915050565b600060208284031215612a5f57600080fd5b6000612a6d848285016127ff565b91505092915050565b600060208284031215612a8857600080fd5b6000612a9684828501612868565b91505092915050565b60008060408385031215612ab257600080fd5b6000612ac085828601612868565b925050602083013567ffffffffffffffff811115612add57600080fd5b612ae98582860161283e565b9150509250929050565b600080600060608486031215612b0857600080fd5b6000612b1686828701612868565b935050602084013567ffffffffffffffff811115612b3357600080fd5b612b3f8682870161283e565b9250506040612b5086828701612868565b9150509250925092565b6000612b668383612b95565b60208301905092915050565b6000612b7e8383612f7e565b905092915050565b612b8f816134e4565b82525050565b612b9e816134d2565b82525050565b612bad816134d2565b82525050565b6000612bbe826133a2565b612bc881856133e8565b9350612bd383613382565b8060005b83811015612c04578151612beb8882612b5a565b9750612bf6836133ce565b925050600181019050612bd7565b5085935050505092915050565b6000612c1c826133ad565b612c2681856133f9565b935083602082028501612c3885613392565b8060005b85811015612c745784840389528151612c558582612b72565b9450612c60836133db565b925060208a01995050600181019050612c3c565b50829750879550505050505092915050565b612c8f816134f6565b82525050565b6000612ca0826133b8565b612caa818561340a565b9350612cba818560208601613567565b612cc3816136d3565b840191505092915050565b6000612cd9826133c3565b612ce3818561341b565b9350612cf3818560208601613567565b612cfc816136d3565b840191505092915050565b6000612d12826133c3565b612d1c818561342c565b9350612d2c818560208601613567565b612d35816136d3565b840191505092915050565b6000612d4b826133c3565b612d55818561343d565b9350612d65818560208601613567565b80840191505092915050565b6000612d7e602d8361342c565b9150612d89826136e4565b604082019050919050565b6000612da160328361342c565b9150612dac82613733565b604082019050919050565b6000612dc460238361342c565b9150612dcf82613782565b604082019050919050565b6000612de760258361342c565b9150612df2826137d1565b604082019050919050565b6000612e0a601c8361342c565b9150612e1582613820565b602082019050919050565b6000612e2d60248361342c565b9150612e3882613849565b604082019050919050565b6000612e5060198361342c565b9150612e5b82613898565b602082019050919050565b6000612e7360298361342c565b9150612e7e826138c1565b604082019050919050565b6000612e96602e8361342c565b9150612ea182613910565b604082019050919050565b6000612eb960208361342c565b9150612ec48261395f565b602082019050919050565b6000612edc60188361342c565b9150612ee782613988565b602082019050919050565b6000612eff60218361342c565b9150612f0a826139b1565b604082019050919050565b6000612f22603d8361342c565b9150612f2d82613a00565b604082019050919050565b6000612f4560248361342c565b9150612f5082613a4f565b604082019050919050565b6000612f68601f8361342c565b9150612f7382613a9e565b602082019050919050565b6000604083016000830151612f966000860182612fbb565b5060208301518482036020860152612fae8282612cce565b9150508091505092915050565b612fc48161354e565b82525050565b612fd38161354e565b82525050565b6000612fe58285612d40565b9150612ff18284612d40565b91508190509392505050565b60006020820190506130126000830184612ba4565b92915050565b600060208201905061302d6000830184612b86565b92915050565b60006080820190506130486000830187612ba4565b6130556020830186612ba4565b6130626040830185612fca565b81810360608301526130748184612c95565b905095945050505050565b600060208201905081810360008301526130998184612bb3565b905092915050565b600060208201905081810360008301526130bb8184612c11565b905092915050565b60006020820190506130d86000830184612c86565b92915050565b600060208201905081810360008301526130f88184612d07565b905092915050565b6000602082019050818103600083015261311981612d71565b9050919050565b6000602082019050818103600083015261313981612d94565b9050919050565b6000602082019050818103600083015261315981612db7565b9050919050565b6000602082019050818103600083015261317981612dda565b9050919050565b6000602082019050818103600083015261319981612dfd565b9050919050565b600060208201905081810360008301526131b981612e20565b9050919050565b600060208201905081810360008301526131d981612e43565b9050919050565b600060208201905081810360008301526131f981612e66565b9050919050565b6000602082019050818103600083015261321981612e89565b9050919050565b6000602082019050818103600083015261323981612eac565b9050919050565b6000602082019050818103600083015261325981612ecf565b9050919050565b6000602082019050818103600083015261327981612ef2565b9050919050565b6000602082019050818103600083015261329981612f15565b9050919050565b600060208201905081810360008301526132b981612f38565b9050919050565b600060208201905081810360008301526132d981612f5b565b9050919050565b60006020820190506132f56000830184612fca565b92915050565b6000613305613316565b905061331182826135cc565b919050565b6000604051905090565b600067ffffffffffffffff82111561333b5761333a6136a4565b5b613344826136d3565b9050602081019050919050565b600067ffffffffffffffff82111561336c5761336b6136a4565b5b613375826136d3565b9050602081019050919050565b6000819050602082019050919050565b6000819050602082019050919050565b600081519050919050565b600081519050919050565b600081519050919050565b600081519050919050565b6000602082019050919050565b6000602082019050919050565b600082825260208201905092915050565b600082825260208201905092915050565b600082825260208201905092915050565b600082825260208201905092915050565b600082825260208201905092915050565b600081905092915050565b60006134538261354e565b915061345e8361354e565b9250827fffffffffffffffffffffffffffffffffffffffffffffffffffffffffffffffff0382111561349357613492613646565b5b828201905092915050565b60006134a98261354e565b91506134b48361354e565b9250828210156134c7576134c6613646565b5b828203905092915050565b60006134dd8261352e565b9050919050565b60006134ef8261352e565b9050919050565b60008115159050919050565b60007fffffffff0000000000000000000000000000000000000000000000000000000082169050919050565b600073ffffffffffffffffffffffffffffffffffffffff82169050919050565b6000819050919050565b82818337600083830152505050565b60005b8381101561358557808201518184015260208101905061356a565b83811115613594576000848401525b50505050565b600060028204905060018216806135b257607f821691505b602082108114156135c6576135c5613675565b5b50919050565b6135d5826136d3565b810181811067ffffffffffffffff821117156135f4576135f36136a4565b5b80604052505050565b60006136088261354e565b91507fffffffffffffffffffffffffffffffffffffffffffffffffffffffffffffffff82141561363b5761363a613646565b5b600182019050919050565b7f4e487b7100000000000000000000000000000000000000000000000000000000600052601160045260246000fd5b7f4e487b7100000000000000000000000000000000000000000000000000000000600052602260045260246000fd5b7f4e487b7100000000000000000000000000000000000000000000000000000000600052604160045260246000fd5b6000601f19601f8301169050919050565b7f4552433732313a2063616c6c6572206973206e6f7420746f6b656e206f776e6560008201527f72206f7220617070726f76656400000000000000000000000000000000000000602082015250565b7f4552433732313a207472616e7366657220746f206e6f6e20455243373231526560008201527f63656976657220696d706c656d656e7465720000000000000000000000000000602082015250565b7f416c7265616479206d696e74656420617420746869732073636f72652062656660008201527f6f72650000000000000000000000000000000000000000000000000000000000602082015250565b7f4552433732313a207472616e736665722066726f6d20696e636f72726563742060008201527f6f776e6572000000000000000000000000000000000000000000000000000000602082015250565b7f4552433732313a20746f6b656e20616c7265616479206d696e74656400000000600082015250565b7f4552433732313a207472616e7366657220746f20746865207a65726f2061646460008201527f7265737300000000000000000000000000000000000000000000000000000000602082015250565b7f4552433732313a20617070726f766520746f2063616c6c657200000000000000600082015250565b7f4552433732313a2061646472657373207a65726f206973206e6f74206120766160008201527f6c6964206f776e65720000000000000000000000000000000000000000000000602082015250565b7f45524337323155524953746f726167653a2055524920736574206f66206e6f6e60008201527f6578697374656e7420746f6b656e000000000000000000000000000000000000602082015250565b7f4552433732313a206d696e7420746f20746865207a65726f2061646472657373600082015250565b7f4552433732313a20696e76616c696420746f6b656e2049440000000000000000600082015250565b7f4552433732313a20617070726f76616c20746f2063757272656e74206f776e6560008201527f7200000000000000000000000000000000000000000000000000000000000000602082015250565b7f4552433732313a20617070726f76652063616c6c6572206973206e6f7420746f60008201527f6b656e206f776e6572206f7220617070726f76656420666f7220616c6c000000602082015250565b7f5468652063616c6c6572206973206e6f742074686520636f6e7472616374206f60008201527f776e657200000000000000000000000000000000000000000000000000000000602082015250565b7f5265656e7472616e637947756172643a207265656e7472616e742063616c6c00600082015250565b613ad0816134d2565b8114613adb57600080fd5b50565b613ae7816134f6565b8114613af257600080fd5b50565b613afe81613502565b8114613b0957600080fd5b50565b613b158161354e565b8114613b2057600080fd5b5056fea26469706673582212201f750c1ae717ae6ff98a9e713e25af1e4047b7c635d3a60fe7bf469dbb70b82e64736f6c63430008040033",
  "devdoc": {
    "kind": "dev",
    "methods": {
      "approve(address,uint256)": {
        "details": "See {IERC721-approve}."
      },
      "balanceOf(address)": {
        "details": "See {IERC721-balanceOf}."
      },
      "getApproved(uint256)": {
        "details": "See {IERC721-getApproved}."
      },
      "isApprovedForAll(address,address)": {
        "details": "See {IERC721-isApprovedForAll}."
      },
      "name()": {
        "details": "See {IERC721Metadata-name}."
      },
      "ownerOf(uint256)": {
        "details": "See {IERC721-ownerOf}."
      },
      "safeTransferFrom(address,address,uint256)": {
        "details": "See {IERC721-safeTransferFrom}."
      },
      "safeTransferFrom(address,address,uint256,bytes)": {
        "details": "See {IERC721-safeTransferFrom}."
      },
      "setApprovalForAll(address,bool)": {
        "details": "See {IERC721-setApprovalForAll}."
      },
      "supportsInterface(bytes4)": {
        "details": "See {IERC165-supportsInterface}."
      },
      "symbol()": {
        "details": "See {IERC721Metadata-symbol}."
      },
      "tokenURI(uint256)": {
        "details": "See {IERC721Metadata-tokenURI}."
      },
      "transferFrom(address,address,uint256)": {
        "details": "See {IERC721-transferFrom}."
      }
    },
    "version": 1
  },
  "userdoc": {
    "kind": "user",
    "methods": {},
    "version": 1
  },
  "storageLayout": {
    "storage": [
      {
        "astId": 79,
        "contract": "contracts/Turtle/Turtis.sol:Turtis",
        "label": "_name",
        "offset": 0,
        "slot": "0",
        "type": "t_string_storage"
      },
      {
        "astId": 81,
        "contract": "contracts/Turtle/Turtis.sol:Turtis",
        "label": "_symbol",
        "offset": 0,
        "slot": "1",
        "type": "t_string_storage"
      },
      {
        "astId": 85,
        "contract": "contracts/Turtle/Turtis.sol:Turtis",
        "label": "_owners",
        "offset": 0,
        "slot": "2",
        "type": "t_mapping(t_uint256,t_address)"
      },
      {
        "astId": 89,
        "contract": "contracts/Turtle/Turtis.sol:Turtis",
        "label": "_balances",
        "offset": 0,
        "slot": "3",
        "type": "t_mapping(t_address,t_uint256)"
      },
      {
        "astId": 93,
        "contract": "contracts/Turtle/Turtis.sol:Turtis",
        "label": "_tokenApprovals",
        "offset": 0,
        "slot": "4",
        "type": "t_mapping(t_uint256,t_address)"
      },
      {
        "astId": 99,
        "contract": "contracts/Turtle/Turtis.sol:Turtis",
        "label": "_operatorApprovals",
        "offset": 0,
        "slot": "5",
        "type": "t_mapping(t_address,t_mapping(t_address,t_bool))"
      },
      {
        "astId": 1145,
        "contract": "contracts/Turtle/Turtis.sol:Turtis",
        "label": "_tokenURIs",
        "offset": 0,
        "slot": "6",
        "type": "t_mapping(t_uint256,t_string_storage)"
      },
      {
        "astId": 10,
        "contract": "contracts/Turtle/Turtis.sol:Turtis",
        "label": "_status",
        "offset": 0,
        "slot": "7",
        "type": "t_uint256"
      },
      {
        "astId": 3168,
        "contract": "contracts/Turtle/Turtis.sol:Turtis",
        "label": "_totalSupply",
        "offset": 0,
        "slot": "8",
        "type": "t_struct(Counter)1642_storage"
      },
      {
        "astId": 3170,
        "contract": "contracts/Turtle/Turtis.sol:Turtis",
        "label": "contractOwner",
        "offset": 0,
        "slot": "9",
        "type": "t_address_payable"
      },
      {
        "astId": 3173,
        "contract": "contracts/Turtle/Turtis.sol:Turtis",
        "label": "users",
        "offset": 0,
        "slot": "10",
        "type": "t_array(t_address)dyn_storage"
      },
      {
        "astId": 3177,
        "contract": "contracts/Turtle/Turtis.sol:Turtis",
        "label": "userAddressToHighScore",
        "offset": 0,
        "slot": "11",
        "type": "t_mapping(t_address,t_uint256)"
      },
      {
        "astId": 3195,
        "contract": "contracts/Turtle/Turtis.sol:Turtis",
        "label": "tokenIdToNFTItem",
        "offset": 0,
        "slot": "12",
        "type": "t_mapping(t_uint256,t_struct(NFTItem)3190_storage)"
      }
    ],
    "types": {
      "t_address": {
        "encoding": "inplace",
        "label": "address",
        "numberOfBytes": "20"
      },
      "t_address_payable": {
        "encoding": "inplace",
        "label": "address payable",
        "numberOfBytes": "20"
      },
      "t_array(t_address)dyn_storage": {
        "base": "t_address",
        "encoding": "dynamic_array",
        "label": "address[]",
        "numberOfBytes": "32"
      },
      "t_bool": {
        "encoding": "inplace",
        "label": "bool",
        "numberOfBytes": "1"
      },
      "t_mapping(t_address,t_bool)": {
        "encoding": "mapping",
        "key": "t_address",
        "label": "mapping(address => bool)",
        "numberOfBytes": "32",
        "value": "t_bool"
      },
      "t_mapping(t_address,t_mapping(t_address,t_bool))": {
        "encoding": "mapping",
        "key": "t_address",
        "label": "mapping(address => mapping(address => bool))",
        "numberOfBytes": "32",
        "value": "t_mapping(t_address,t_bool)"
      },
      "t_mapping(t_address,t_uint256)": {
        "encoding": "mapping",
        "key": "t_address",
        "label": "mapping(address => uint256)",
        "numberOfBytes": "32",
        "value": "t_uint256"
      },
      "t_mapping(t_uint256,t_address)": {
        "encoding": "mapping",
        "key": "t_uint256",
        "label": "mapping(uint256 => address)",
        "numberOfBytes": "32",
        "value": "t_address"
      },
      "t_mapping(t_uint256,t_string_storage)": {
        "encoding": "mapping",
        "key": "t_uint256",
        "label": "mapping(uint256 => string)",
        "numberOfBytes": "32",
        "value": "t_string_storage"
      },
      "t_mapping(t_uint256,t_struct(NFTItem)3190_storage)": {
        "encoding": "mapping",
        "key": "t_uint256",
        "label": "mapping(uint256 => struct Turtis.NFTItem)",
        "numberOfBytes": "32",
        "value": "t_struct(NFTItem)3190_storage"
      },
      "t_string_storage": {
        "encoding": "bytes",
        "label": "string",
        "numberOfBytes": "32"
      },
      "t_struct(Counter)1642_storage": {
        "encoding": "inplace",
        "label": "struct Counters.Counter",
        "members": [
          {
            "astId": 1641,
            "contract": "contracts/Turtle/Turtis.sol:Turtis",
            "label": "_value",
            "offset": 0,
            "slot": "0",
            "type": "t_uint256"
          }
        ],
        "numberOfBytes": "32"
      },
      "t_struct(NFTItem)3190_storage": {
        "encoding": "inplace",
        "label": "struct Turtis.NFTItem",
        "members": [
          {
            "astId": 3187,
            "contract": "contracts/Turtle/Turtis.sol:Turtis",
            "label": "tokenId",
            "offset": 0,
            "slot": "0",
            "type": "t_uint256"
          },
          {
            "astId": 3189,
            "contract": "contracts/Turtle/Turtis.sol:Turtis",
            "label": "tokenURI",
            "offset": 0,
            "slot": "1",
            "type": "t_string_storage"
          }
        ],
        "numberOfBytes": "64"
      },
      "t_uint256": {
        "encoding": "inplace",
        "label": "uint256",
        "numberOfBytes": "32"
      }
    }
  }
}